:100000000C942A000C9447000C9447000C94470071
:100010000C9447000C9447000C94280A0C94470059
:100020000C9447000C9447000C94710A0C94470000
:100030000C9447000C9447000C9447000C94470024
:100040000C9447000C9447000C9447000C94470014
:100050000C94470011241FBECFE5D8E0DEBFCDBF12
:1000600010E0A0E6B0E0E8E7FEE202C005900D92E5
:10007000A439B107D9F710E0A4E9B0E001C01D929E
:10008000A33AB107E1F70E9492120C943A170C942C
:100090000000EF92FF920F931F937B018C0120E0F1
:1000A00030E040E05FE40E94490388238CF0C801FF
:1000B000B70120E030E040E05FE40E94C1010E940F
:1000C000A9039B01AC01205030404040504806C07D
:1000D000C801B7010E94A9039B01AC01B901CA0183
:1000E0001F910F91FF90EF900895A0E0B0E0EBE733
:1000F000F0E00C943114DC012B01FA019C91923058
:1001000008F439C1EB018881823008F433C194309E
:1001100069F4843009F02FC111969C91119789815F
:10012000981709F428C1AAE7B0E025C1843009F482
:1001300021C18230A9F4923009F01DC19A01AD01AC
:1001400088E0EA010990AE01E90109929E0181501F
:10015000C1F7E201898111969C918923818308C1AD
:10016000923009F407C112962D903C901397EB0141
:100170008A819B811496AD90BD90CD90DC901797AD
:10018000EC80FD800E811F819101281B390BB90184
:1001900037FF04C066277727621B730B6032710537
:1001A0000CF061C0121613066CF537014801062EDB
:1001B00004C096948794779467940A94D2F721E0C8
:1001C00030E040E050E004C0220F331F441F551FB1
:1001D0006A95D2F721503040404050402E213F21B7
:1001E00040235123211531054105510521F021E01E
:1001F00030E040E050E079018A01E628F72808293C
:1002000019293CC0232BD1F1260E371E350146019A
:10021000062E04C096948794779467940A94D2F734
:1002200021E030E040E050E004C0220F331F441FC3
:10023000551F6A95D2F721503040404050402A2146
:100240003B214C215D21211531054105510521F04E
:1002500021E030E040E050E059016A01A628B728CB
:10026000C828D9280BC0821593052CF01C01AA249C
:10027000BB24650103C0EE24FF24870111969C91E5
:10028000D20111968C91981709F445C0992339F041
:10029000A80197012A193B094C095D0906C0A6016E
:1002A00095012E193F09400B510B57FD08C01182D3
:1002B0003382228224833583468357831DC081E0A5
:1002C00081833382228288279927DC01821B930B4A
:1002D000A40BB50B84839583A683B7830DC0220F2F
:1002E000331F441F551F24833583468357838281E0
:1002F000938101979383828324813581468157813D
:10030000DA01C9010197A109B1098F5F9F4FAF4F72
:10031000BF4328F30BC0918333822282EA0CFB1C7B
:100320000C1D1D1DE482F5820683178383E0808304
:10033000248135814681578157FF1AC0C901AA27F8
:1003400097FDA095BA2F81709070A070B0705695EF
:10035000479537952795822B932BA42BB52B848318
:100360009583A683B7838281938101969383828349
:10037000DF0101C0D201CD01CDB7DEB7E2E10C94BF
:100380004D14A0E2B0E0E7ECF1E00C943D14698379
:100390007A838B839C832D833E834F835887E9E048
:1003A000EE2EF12CEC0EFD1ECE010196B7010E943F
:1003B000D2048E010F5E1F4FCE010596B8010E9438
:1003C000D2048A8991E089278A8BC701B801AE01DE
:1003D000475E5F4F0E9475000E94FD03A096E6E015
:1003E0000C945914A0E2B0E0E8EFF1E00C943D1455
:1003F00069837A838B839C832D833E834F835887C5
:10040000F9E0EF2EF12CEC0EFD1ECE010196B701A6
:100410000E94D2048E010F5E1F4FCE010596B801D7
:100420000E94D204C701B801AE01475E5F4F0E942F
:1004300075000E94FD03A096E6E00C945914A0E21A
:10044000B0E0E5E2F2E00C94311469837A838B83A7
:100450009C832D833E834F835887CE010196BE0136
:10046000675F7F4F0E94D204CE010596BE016F5E8A
:100470007F4F0E94D2049985923088F0898982301A
:10048000C8F0943019F4823051F404C0843029F457
:10049000923081F48AE790E0C6C0923049F420E0BF
:1004A0009A858A89981321E02A87CE010996BBC0D4
:1004B000823049F420E09A858A89981321E02A8BBA
:1004C000CE014196B0C02D843E844F8458886D88FB
:1004D0007E888F88988CEE24FF248701AA24BB2471
:1004E000650140E050E060E070E0E0E0F0E0C10174
:1004F00081709070892BE9F0E60CF71C081D191D1E
:100500009A01AB012A0D3B1D4C1D5D1D80E090E062
:10051000A0E0B0E0E614F7040805190520F481E036
:1005200090E0A0E0B0E0BA01A901480F591F6A1F8E
:100530007B1FAA0CBB1CCC1CDD1C97FE08C081E0F5
:1005400090E0A0E0B0E0A82AB92ACA2ADB2A3196B6
:10055000E032F10549F0660C771C881C991C569412
:10056000479437942794C3CFFA85EA892B893C892D
:100570008B859C85280F391F2E5F3F4F17C0CA01FE
:1005800081709070892B61F016950795F794E79428
:1005900080E090E0A0E0B0E8E82AF92A0A2B1B2BC3
:1005A00076956795579547952F5F3F4F77FDE7CF36
:1005B0000CC0440F551F661F771F17FD4160EE0CDE
:1005C000FF1C001F111F21503040403090E05907A0
:1005D00090E0690790E4790760F32B8F3C8FDB0193
:1005E000CA018F779070A070B07080349105A1051A
:1005F000B10561F447FD0AC0E114F10401051105DC
:1006000029F0405C5F4F6F4F7F4F40781A8EFE1786
:1006100011F081E08A8F4D8F5E8F6F8F78A383E01A
:10062000898FCE0149960E94FD03A096E2E10C94C9
:100630004D14A8E1B0E0EFE1F3E00C943D146983C0
:100640007A838B839C832D833E834F83588789E0F5
:10065000E82EF12CEC0EFD1ECE010196B7010E9492
:10066000D2048E010F5E1F4FCE010596B8010E9485
:10067000D2048985823040F08989823028F0C70110
:10068000B8010E944A0501C08FEF6896E6E00C941D
:100690005914A8E1B0E0EFE4F3E00C943D14698351
:1006A0007A838B839C832D833E834F83588789E095
:1006B000E82EF12CEC0EFD1ECE010196B7010E9432
:1006C000D2048E010F5E1F4FCE010596B8010E9425
:1006D000D2048985823040F08989823028F0C701B0
:1006E000B8010E944A0501C08FEF6896E6E00C94BD
:1006F0005914A8E1B0E0EFE7F3E00C943D146983EE
:100700007A838B839C832D833E834F83588789E034
:10071000E82EF12CEC0EFD1ECE010196B7010E94D1
:10072000D2048E010F5E1F4FCE010596B8010E94C4
:10073000D2048985823040F08989823028F0C7014F
:10074000B8010E944A0501C081E06896E6E00C9479
:100750005914ACE0B0E0EFEAF3E00C944114698383
:100760007A838B839C83CE010196BE016B5F7F4FA2
:100770000E94D2048D81823061F1823050F1843048
:1007800021F48E81882351F12EC02F81388537FDC9
:1007900020C06E812F3131051CF06623F9F023C093
:1007A0008EE190E0821B930B29853A854B855C8511
:1007B00004C056954795379527958A95D2F76623B5
:1007C000B1F050954095309521953F4F4F4F5F4F79
:1007D0000EC020E030E040E050E009C02FEF3FEFD6
:1007E0004FEF5FE704C020E030E040E050E8B9019F
:1007F000CA012C96E2E00C945D14DF92EF92FF9216
:100800000F931F93FC01E480F58006811781D1804E
:100810008081823048F480E090E0A0E1B0E0E82AF6
:10082000F92A0A2B1B2BA5C0843009F49FC0823003
:1008300021F4EE24FF24870105C0E114F104010531
:10084000110519F4E0E0F0E096C0628173819FEF3A
:10085000623879070CF05BC022E83FEF261B370BAC
:100860002A3131052CF020E030E040E050E02AC091
:10087000B801A701022E04C0769567955795479554
:100880000A94D2F781E090E0A0E0B0E004C0880FC5
:10089000991FAA1FBB1F2A95D2F70197A109B10979
:1008A0008E219F21A023B1230097A105B10521F03E
:1008B00081E090E0A0E0B0E09A01AB01282B392B59
:1008C0004A2B5B2BDA01C9018F779070A070B07052
:1008D00080349105A105B10539F427FF09C0205CDA
:1008E0003F4F4F4F5F4F04C0215C3F4F4F4F5F4F13
:1008F000E0E0F0E02030A0E03A07A0E04A07A0E402
:100900005A0710F0E1E0F0E079018A0127C0603871
:10091000710564F5FB01E158FF4FD801C7018F77DE
:100920009070A070B07080349105A105B10539F4C4
:10093000E7FE0DC080E490E0A0E0B0E004C08FE3EB
:1009400090E0A0E0B0E0E80EF91E0A1F1B1F17FFA1
:1009500005C016950795F794E794319687E01695AC
:100960000795F794E7948A95D1F705C0EE24FF2404
:100970008701EFEFF0E06E2F679566276795902F60
:100980009F77D794DD24D7948E2F8695492F462BB9
:10099000582F5D29B701CA011F910F91FF90EF9069
:1009A000DF900895FC01DB01408151812281622F9B
:1009B0006F7770E0221F2227221F9381892F880FD3
:1009C000822B282F30E0991F9927991F11969C930D
:1009D000119721153105A9F54115510561057105DD
:1009E00011F482E037C082E89FEF13969C938E93B8
:1009F00012979A01AB0167E0220F331F441F551F66
:100A00006A95D1F783E08C930DC0220F331F441FEA
:100A1000551F12968D919C911397019713969C9355
:100A20008E931297203080E0380780E0480780E4FA
:100A3000580758F314962D933D934D935C93179755
:100A400008952F3F310579F4411551056105710570
:100A500019F484E08C93089564FF03C081E08C93C3
:100A600012C01C9210C02F57304013963C932E9307
:100A7000129783E08C9387E0440F551F661F771F02
:100A80008A95D1F7706414964D935D936D937C9322
:100A9000179708951F93DC01FB019C91923008F495
:100AA00047C08081823008F443C0943051F41196DD
:100AB0001C91843099F58181682F70E0611B710968
:100AC0003FC0843021F0923031F48230B9F181811D
:100AD000882389F12DC011961C9111978230F1F075
:100AE00081811817D9F412962D913C911397828128
:100AF00093818217930794F028173907BCF0149656
:100B00008D919D910D90BC91A02D248135814681C0
:100B10005781281739074A075B0718F4112341F05A
:100B20000AC082179307A407B50740F4112319F0F0
:100B300061E070E005C06FEF7FEF02C060E070E041
:100B4000CB011F9108950F931F93DF93CF9300D094
:100B5000CDB7DEB79A838983E981FA8180818130BC
:100B600049F5A3E5B0E0E3E5F0E080818F7B8C936D
:100B7000A3E5B0E0E3E5F0E0808188608C93E98153
:100B8000FA818181813041F4A9E5B0E0E9E5F0E046
:100B9000808182608C9395C0E981FA81818188236C
:100BA00009F08FC0A9E5B0E0E9E5F0E080818D7F34
:100BB0008C9387C0E981FA818081823049F5A3E571
:100BC000B0E0E3E5F0E0808180648C93A3E5B0E0E1
:100BD000E3E5F0E0808188608C93E981FA8181818E
:100BE000813041F4A9E5B0E0E9E5F0E08081826080
:100BF0008C9367C0E981FA818181882309F061C003
:100C0000A9E5B0E0E9E5F0E080818D7F8C9359C0E3
:100C1000E981FA818081833041F5A3E5B0E0E3E525
:100C2000F0E0808180648C93A3E5B0E0E3E5F0E040
:100C30008081877F8C93E981FA818181813041F4C1
:100C4000A9E5B0E0E9E5F0E0808182608C9339C0ED
:100C5000E981FA8181818823A1F5A9E5B0E0E9E580
:100C6000F0E080818D7F8C932CC0E981FA818081B6
:100C7000882339F5A3E5B0E0E3E5F0E080818F7BE0
:100C80008C93A3E5B0E0E3E5F0E08081877F8C936F
:100C9000E981FA818181813041F4A9E5B0E0E9E59B
:100CA000F0E0808181608C930CC0E981FA818181C0
:100CB000882339F4A9E5B0E0E9E5F0E080818E7F92
:100CC0008C93E981FA818081813009F5A3E5B0E058
:100CD000E3E5F0E080818F7C8C93A3E5B0E0E3E571
:100CE000F0E08081282FE981FA818281882F90E0CD
:100CF00082959295907F9827807F9827822B8C935E
:100D0000ACE5B0E0E981FA8183818C939EC0E981F2
:100D1000FA818081833009F04AC0A3E5B0E0E3E5C1
:100D2000F0E080818F7C8C93A3E5B0E0E3E5F0E018
:100D30008081282FE981FA818281882F90E0829535
:100D40009295907F9827807F9827822B8C93E981BA
:100D5000FA818281833099F40CE510E0E981FA810F
:100D60008481882F90E0982F882724E630E0B9010D
:100D70000E94CD13CB018195F801808366C0E98183
:100D8000FA818281823009F060C00CE510E0E981CF
:100D9000FA818481882F90E0982F882724E630E01C
:100DA000B9010E94CD13CB01F80180834EC0E981C7
:100DB000FA818081823009F048C0A3E5B0E0E3E524
:100DC000F0E080818F7C8C93A3E5B0E0E3E5F0E078
:100DD0008081282FE981FA818281882F90E0829595
:100DE0009295907F9827807F9827822B8C93E9811A
:100DF000FA818281823091F40CE510E0E981FA8178
:100E00008481882F90E0982F882724E630E0B9016C
:100E10000E94CD13CB01F801808317C0E981FA81CC
:100E20008281833091F40CE510E0E981FA818481BC
:100E3000882F90E0982F882724E630E0B9010E949F
:100E4000CD13CB018195F8018083A3E5B0E0E3E504
:100E5000F0E08081887F8C93A3E5B0E0E3E5F0E0EB
:100E60009081E981FA818581892B8C930F900F9075
:100E7000CF91DF911F910F910895DF93CF930F9240
:100E8000CDB7DEB78983ECE5F0E08981882F90E06B
:100E9000982F882724E630E0B9010E94CD13CB01BA
:100EA00080830F90CF91DF910895DF93CF930F92BE
:100EB000CDB7DEB78983ECE5F0E08981882F90E03B
:100EC000982F882724E630E0B9010E94CD13CB018A
:100ED000819580830F90CF91DF910895DF93CF9319
:100EE000CDB7DEB7A3E5B0E0E3E5F0E08081887F31
:100EF0008C93CF91DF910895DF93CF9300D0CDB73E
:100F0000DEB79A838983AFE4B0E0EFE4F0E080815C
:100F10008C7F8C93AFE4B0E0EFE4F0E08081982F19
:100F2000E981FA818081837F892B8C93AEE4B0E0E4
:100F3000EEE4F0E08081877E8C93AEE4B0E0EEE4F6
:100F4000F0E08081282FE981FA818081869586955D
:100F5000882F90E09070880F991F880F991F880F35
:100F6000991F822B8C93E981FA8182818823D9F49D
:100F7000E981FA818181813041F4A9E5B0E0E9E5B8
:100F8000F0E0808180618C9379C0E981FA81818170
:100F9000882309F073C0A9E5B0E0E9E5F0E08081BD
:100FA0008F7E8C936BC0E981FA8182818130D9F484
:100FB000E981FA818181813041F4A9E5B0E0E9E578
:100FC000F0E0808188608C9359C0E981FA81818149
:100FD000882309F053C0A9E5B0E0E9E5F0E080819D
:100FE000877F8C934BC0E981FA818281823041F501
:100FF000E981FA818181813079F4A9E5B0E0E9E500
:10100000F0E0808180618C93A9E5B0E0E9E5F0E053
:10101000808188608C9332C0E981FA818181882344
:1010200069F5A9E5B0E0E9E5F0E080818F7E8C9379
:10103000A9E5B0E0E9E5F0E08081877F8C931EC0F0
:10104000E981FA8182818330C9F4E981FA81818161
:10105000813041F4A9E5B0E0E9E5F0E08081846009
:101060008C930CC0E981FA818181882339F4A9E548
:10107000B0E0E9E5F0E080818B7F8C93AEE4B0E0F6
:10108000EEE4F0E08081887F8C93AEE4B0E0EEE4A3
:10109000F0E09081E981FA818381892B8C930F9014
:1010A0000F90CF91DF910895DF93CF9300D0CDB70C
:1010B000DEB79A838983E981FA818081882371F57B
:1010C000AFE4B0E0EFE4F0E08081282FE981FA811D
:1010D0008181882F90E000249695879507949695B6
:1010E00087950794982F802D809582238C93AFE469
:1010F000B0E0EFE4F0E08081282FE981FA8181817E
:10110000882F90E00024969587950794969587956B
:101110000794982F802D822B8C932CC0E981FA8123
:101120008081813039F5AFE4B0E0EFE4F0E0808118
:10113000282FE981FA818181882F90E0829592950C
:10114000907F9827807F9827809582238C93AFE4A7
:10115000B0E0EFE4F0E08081282FE981FA8181811D
:10116000882F90E082959295907F9827807F98278E
:10117000822B8C930F900F90CF91DF910895DF9386
:10118000CF9300D0CDB7DEB79A838983E981FA8106
:101190008081882359F4EAE4F0E0A981BA811196AC
:1011A0008D919C911297918380830FC0E981FA8180
:1011B0008081813051F4E8E4F0E0A981BA81119690
:1011C0008D919C911297918380830F900F90CF9176
:1011D000DF9108950F931F93DF93CF9300D0CDB786
:1011E000DEB79A838983E981FA8180818823D1F4EB
:1011F0000AE410E0E981FA8181819281CC01A0E0CA
:10120000B0E0DC019927882724E630E040E050E098
:10121000BC01CD010E94E013DA01C901F8019183FC
:1012200080831EC0E981FA8180818130C9F408E49D
:1012300010E0E981FA8181819281CC01A0E0B0E0E7
:10124000DC019927882724E630E040E050E0BC012B
:10125000CD010E94E013DA01C901F8019183808376
:101260000F900F90CF91DF911F910F9108950F93E1
:101270001F93DF93CF9300D0CDB7DEB79A838983D6
:10128000E981FA8180818823E9F40AE410E0E981A8
:10129000FA8181819281CC01A0E0B0E0DC01992744
:1012A000882724E630E040E050E0BC01CD010E94F8
:1012B000E013DA01C901909581959F4FF801918360
:1012C000808321C0E981FA8180818130E1F408E4E2
:1012D00010E0E981FA8181819281CC01A0E0B0E047
:1012E000DC019927882724E630E040E050E0BC018B
:1012F000CD010E94E013DA01C901909581959F4FBD
:10130000F801918380830F900F90CF91DF911F910F
:101310000F910895DF93CF9300D0CDB7DEB79A83B6
:101320008983E6E4F0E089819A81918380830F903C
:101330000F90CF91DF910895DF93CF93CDB7DEB7B4
:10134000A3E5B0E0E3E5F0E08081887F8C93CF9166
:10135000DF910895DF93CF930F92CDB7DEB78983E6
:101360008981813041F4A9E5B0E0E9E5F0E08081D0
:1013700080628C930AC08981882339F4A9E5B0E0A2
:10138000E9E5F0E080818F7D8C930F90CF91DF9124
:101390000895DF93CF930F92CDB7DEB7898389810C
:1013A000813041F4AEE4B0E0EEE4F0E080818064AE
:1013B0008C930AC08981882339F4AEE4B0E0EEE46E
:1013C000F0E080818F7B8C930F90CF91DF91089517
:1013D000DF93CF930F92CDB7DEB7898389818130B8
:1013E00041F4AEE4B0E0EEE4F0E0808180688C93FC
:1013F0000AC08981882339F4AEE4B0E0EEE4F0E07D
:1014000080818F778C930F90CF91DF910895DF9338
:10141000CF93CDB7DEB7E6E4F0E080819181CF9144
:10142000DF910895DF93CF9300D0CDB7DEB79A83D5
:10143000898389819A81009731F089819A8190937B
:101440009500809394000F900F90CF91DF910895B5
:101450001F920F920FB60F9211242F933F934F9329
:101460005F936F937F938F939F93AF93BF93EF930C
:10147000FF93DF93CF93CDB7DEB780919400909127
:101480009500009729F0E0919400F091950009955E
:10149000CF91DF91FF91EF91BF91AF919F918F918C
:1014A0007F916F915F914F913F912F910F900FBE60
:1014B0000F901F901895DF93CF9300D0CDB7DEB774
:1014C0009A83898389819A81009731F089819A81F1
:1014D00090939700809396000F900F90CF91DF919B
:1014E00008951F920F920FB60F9211242F933F93DE
:1014F0004F935F936F937F938F939F93AF93BF931C
:10150000EF93FF93DF93CF93CDB7DEB78091960033
:1015100090919700009729F0E0919600F091970044
:101520000995CF91DF91FF91EF91BF91AF919F917D
:101530008F917F916F915F914F913F912F910F907C
:101540000FBE0F901F901895DF93CF93CDB7DEB7E6
:10155000AFE5B0E0EFE5F0E0808180688C93CF915B
:10156000DF910895DF93CF93CDB7DEB7AFE5B0E05D
:10157000EFE5F0E080818F778C93CF91DF91089534
:10158000DF93CF93CDB7DEB727970FB6F894DEBFC2
:101590000FBECDBF89836A834B838B81882309F07B
:1015A00075C08981282F30E03F832E838E819F81F3
:1015B0008330910561F12E813F812430310534F46F
:1015C0008E819F818230910569F0D3C02E813F8149
:1015D0002430310589F18E819F818530910509F490
:1015E00040C0C7C0ABE3B0E0EBE3F0E08081482F40
:1015F0008A81282F30E081E090E0022E02C0880F1F
:10160000991F0A94E2F7809584238C93B2C0A8E3D3
:10161000B0E0E8E3F0E08081482F8A81282F30E0B5
:1016200081E090E0022E02C0880F991F0A94E2F731
:10163000809584238C939DC0A5E3B0E0E5E3F0E0C2
:101640008081482F8A81282F30E081E090E0022EAF
:1016500002C0880F991F0A94E2F7809584238C9327
:1016600088C0A2E3B0E0E2E3F0E08081482F8A8105
:10167000282F30E081E090E0022E02C0880F991FF1
:101680000A94E2F7809584238C9373C08B81813018
:1016900009F06FC08981282F30E03D832C838C8135
:1016A0009D818330910551F12C813D81243031059C
:1016B00034F48C819D818230910561F05AC02C8177
:1016C0003D812430310571F18C819D8185309105FA
:1016D000E9F14FC0ABE3B0E0EBE3F0E08081482FED
:1016E0008A81282F30E081E090E0022E02C0880F2E
:1016F000991F0A94E2F7842B8C933BC0A8E3B0E0D7
:10170000E8E3F0E08081482F8A81282F30E081E0F3
:1017100090E0022E02C0880F991F0A94E2F7842BF2
:101720008C9327C0A5E3B0E0E5E3F0E08081482F8B
:101730008A81282F30E081E090E0022E02C0880FDD
:10174000991F0A94E2F7842B8C9313C0A2E3B0E0B4
:10175000E2E3F0E08081482F8A81282F30E081E0A9
:1017600090E0022E02C0880F991F0A94E2F7842BA2
:101770008C9327960FB6F894DEBF0FBECDBFCF91E6
:10178000DF910895DF93CF93CDB7DEB727970FB6DC
:10179000F894DEBF0FBECDBF89836A834B838B81F4
:1017A000882309F075C08981282F30E03F832E837C
:1017B0008E819F818330910561F12E813F8124309C
:1017C000310534F48E819F818230910569F0D3C058
:1017D0002E813F812430310589F18E819F818530B2
:1017E000910509F440C0C7C0AAE3B0E0EAE3F0E025
:1017F0008081482F8A81282F30E081E090E0022EFE
:1018000002C0880F991F0A94E2F7809584238C9375
:10181000B2C0A7E3B0E0E7E3F0E08081482F8A811F
:10182000282F30E081E090E0022E02C0880F991F3F
:101830000A94E2F7809584238C939DC0A4E3B0E0E2
:10184000E4E3F0E08081482F8A81282F30E081E0B6
:1018500090E0022E02C0880F991F0A94E2F780954B
:1018600084238C9388C0A1E3B0E0E1E3F0E08081C1
:10187000482F8A81282F30E081E090E0022E02C0BC
:10188000880F991F0A94E2F7809584238C9373C084
:101890008B81813009F06FC08981282F30E03D8332
:1018A0002C838C819D818330910551F12C813D8168
:1018B0002430310534F48C819D818230910561F0B2
:1018C0005AC02C813D812430310571F18C819D817C
:1018D00085309105E9F14FC0AAE3B0E0EAE3F0E01A
:1018E0008081482F8A81282F30E081E090E0022E0D
:1018F00002C0880F991F0A94E2F7842B8C933BC097
:10190000A7E3B0E0E7E3F0E08081482F8A81282F49
:1019100030E081E090E0022E02C0880F991F0A9407
:10192000E2F7842B8C9327C0A4E3B0E0E4E3F0E07B
:101930008081482F8A81282F30E081E090E0022EBC
:1019400002C0880F991F0A94E2F7842B8C9313C06E
:10195000A1E3B0E0E1E3F0E08081482F8A81282F05
:1019600030E081E090E0022E02C0880F991F0A94B7
:10197000E2F7842B8C9327960FB6F894DEBF0FBE48
:10198000CDBFCF91DF910895DF93CF9300D000D0EA
:1019900000D0CDB7DEB789836A835C834B838981AE
:1019A000282F30E03E832D834D815E8143305105E9
:1019B00059F18D819E818430910534F42D813E81D1
:1019C0002230310569F05BC04D815E8144305105A4
:1019D00079F18D819E818530910509F43DC04FC01C
:1019E000E9E3F0E08081282F30E08A81882F90E0C1
:1019F000A90102C0559547958A95E2F7CA01817001
:101A0000EB81FC8180833BC0E6E3F0E08081282FFE
:101A100030E08A81882F90E0A90102C05595479552
:101A20008A95E2F7CA018170EB81FC81808327C02F
:101A3000E3E3F0E08081282F30E08A81882F90E076
:101A4000A90102C0559547958A95E2F7CA018170B0
:101A5000EB81FC81808313C0E0E3F0E08081282FDC
:101A600030E08A81882F90E0A90102C05595479502
:101A70008A95E2F7CA018170EB81FC81808326960A
:101A80000FB6F894DEBF0FBECDBFCF91DF910895A2
:101A9000DF93CF9300D000D0CDB7DEB789836A83C0
:101AA0008981282F30E03C832B838B819C8183307C
:101AB0009105D9F02B813C812430310534F48B81A0
:101AC0009C818230910561F01EC02B813C812430C5
:101AD000310581F08B819C818530910581F013C0A7
:101AE000EBE3F0E08A8180830EC0E8E3F0E08A81D6
:101AF000808309C0E5E3F0E08A81808304C0E2E3EB
:101B0000F0E08A8180830F900F900F900F90CF911B
:101B1000DF910895DF93CF9300D000D000D0CDB7F0
:101B2000DEB789836A838A81882381F58981282F9A
:101B300030E03E832D838D819E8183309105D1F0ED
:101B40002D813E812430310534F48D819E81823097
:101B5000910561F051C02D813E812430310571F035
:101B60008D819E818530910569F046C0EAE3F0E001
:101B7000108242C0E7E3F0E010823EC0E4E3F0E010
:101B800010823AC0E1E3F0E0108236C08A818130F1
:101B900099F58981282F30E03C832B838B819C81B0
:101BA00083309105D9F02B813C812430310534F408
:101BB0008B819C818230910561F01EC02B813C811C
:101BC0002430310581F08B819C818530910581F035
:101BD00013C0EAE3F0E08FEF80830EC0E7E3F0E0AC
:101BE0008FEF808309C0E4E3F0E08FEF808304C0CF
:101BF000E1E3F0E08FEF808326960FB6F894DEBF26
:101C00000FBECDBFCF91DF910895DF93CF9300D06A
:101C100000D00F92CDB7DEB789837B836A83898139
:101C2000282F30E03D832C838C819D81833091056A
:101C3000E9F02C813D812430310534F48C819D8183
:101C40008230910561F026C02C813D812430310520
:101C5000A1F08C819D8185309105B1F01BC0E9E335
:101C6000F0E08081EA81FB81808314C0E6E3F0E04C
:101C70008081EA81FB8180830DC0E3E3F0E0808115
:101C8000EA81FB81808306C0E0E3F0E08081EA81A5
:101C9000FB8180830F900F900F900F900F90CF914A
:101CA000DF910895DF93CF93CDB7DEB7A7E2B0E021
:101CB000E7E2F0E0808180648C93A7E2B0E0E7E2A5
:101CC000F0E080818F778C93A7E2B0E0E7E2F0E06C
:101CD000808180628C93A6E2B0E0E6E2F0E0808151
:101CE00081608C93A6E2B0E0E6E2F0E08081826061
:101CF0008C93A6E2B0E0E6E2F0E0808184608C9311
:101D0000A6E2B0E0E6E2F0E0808180688C93CF91BB
:101D1000DF910895DF93CF930F92CDB7DEB789831C
:101D2000A7E2B0E0E7E2F0E08081807E8C93A7E25A
:101D3000B0E0E7E2F0E090818981892B8C93A6E204
:101D4000B0E0E6E2F0E0808180648C93E6E2F0E0CF
:101D5000808182958F70882F90E0817090700097BD
:101D6000A9F3A6E2B0E0E6E2F0E0808180618C9326
:101D7000E5E2F0E080810F90CF91DF910895AF927E
:101D8000BF92CF92DF92EF92FF920F931F93DF9358
:101D9000CF93CDB7DEB764970FB6F894DEBF0FBE12
:101DA000CDBF6D837E838F83988729873A874B8742
:101DB0005C87ED86FE860F87188BA98ABA8ACB8A44
:101DC000DC8A2D813E814F81588589859A85AB8536
:101DD000BC8579018A01E81AF90A0A0B1B0BD801A4
:101DE000C70189839A83AB83BC8329893A894B894C
:101DF0005C8989A19AA1ABA1BCA1281B390B4A0B14
:101E00005B0B89819A81AB81BC81BC01CD010E94B1
:101E1000AE13DC01CB0189839A83AB83BC83298514
:101E20003A854B855C858D859E85AF85B889281B55
:101E3000390B4A0B5B0B89819A81AB81BC81BC0158
:101E4000CD010E940214DA01C90189839A83AB8310
:101E5000BC8329813A814B815C8189899A89AB89CC
:101E6000BC89820F931FA41FB51F89839A83AB83FC
:101E7000BC8389819A81AB81BC81BC01CD01649610
:101E80000FB6F894DEBF0FBECDBFCF91DF911F918B
:101E90000F91FF90EF90DF90CF90BF90AF9008959B
:101EA000DF93CF9300D00F92CDB7DEB78B838B81BA
:101EB000882F90E0A0E0B0E023E130E040E050E087
:101EC000BC01CD010E94AE13DC01CB019A83898352
:101ED00089819A810F900F900F90CF91DF91089593
:101EE000DF93CF93CDB7DEB72F970FB6F894DEBF51
:101EF0000FBECDBF8F8784E065E040E00E94C00A3E
:101F000084E066E040E00E94C00A82E06F850E94A3
:101F1000480D84E067E041E00E94C00A80E090E064
:101F2000A0E4B0E48B879C87AD87BE876B857C85FA
:101F30008D859E8520E030E04AEF54E40E941F0228
:101F4000DC01CB018F839887A987BA876F81788559
:101F500089859A8520E030E040E85FE30E947903BC
:101F600088232CF481E090E09E838D833FC06F81B5
:101F7000788589859A8520E03FEF4FE757E40E94F6
:101F8000190318164CF56B857C858D859E8520E0A0
:101F900030E040E251E40E941F02DC01CB01BC01B1
:101FA000CD010E944900DC01CB019E838D830FC0CF
:101FB00088EC90E09C838B838B819C810197F1F767
:101FC0009C838B838D819E8101979E838D838D81E0
:101FD0009E81009769F714C06F81788589859A85FD
:101FE0000E944900DC01CB019E838D838D819E81FF
:101FF0009A83898389819A810197F1F79A838983EA
:1020000084E067E040E00E94C00A2F960FB6F89483
:10201000DEBF0FBECDBFCF91DF910895DF93CF9389
:10202000CDB7DEB72F970FB6F894DEBF0FBECDBF8A
:102030008F8784E065E041E00E94C00A84E066E0AA
:1020400040E00E94C00A82E06F850E94480D84E053
:1020500067E041E00E94C00A80E090E0A0E4B0E4C4
:102060008B879C87AD87BE876B857C858D859E859C
:1020700020E030E04AEF54E40E941F02DC01CB0173
:102080008F839887A987BA876F81788589859A8594
:1020900020E030E040E85FE30E94790388232CF4DD
:1020A00081E090E09E838D833FC06F817885898534
:1020B0009A8520E03FEF4FE757E40E941903181676
:1020C0004CF56B857C858D859E8520E030E040E277
:1020D00051E40E941F02DC01CB01BC01CD010E9432
:1020E0004900DC01CB019E838D830FC088EC90E01A
:1020F0009C838B838B819C810197F1F79C838B83DD
:102100008D819E8101979E838D838D819E81009715
:1021100069F714C06F81788589859A850E94490086
:10212000DC01CB019E838D838D819E819A8389837F
:1021300089819A810197F1F79A83898384E067E026
:1021400040E00E94C00A2F960FB6F894DEBF0FBE83
:10215000CDBFCF91DF910895DF93CF93CDB7DEB799
:102160002E970FB6F894DEBF0FBECDBF80E090E093
:10217000A0E2B2E48B879C87AD87BE876B857C85A8
:102180008D859E8520E030E04AEF54E40E941F02D6
:10219000DC01CB018F839887A987BA876F81788507
:1021A00089859A8520E030E040E85FE30E9479036A
:1021B00088232CF481E090E09E838D833FC06F8163
:1021C000788589859A8520E03FEF4FE757E40E94A4
:1021D000190318164CF56B857C858D859E8520E04E
:1021E00030E040E251E40E941F02DC01CB01BC015F
:1021F000CD010E944900DC01CB019E838D830FC07D
:1022000088EC90E09C838B838B819C810197F1F714
:102210009C838B838D819E8101979E838D838D818D
:102220009E81009769F714C06F81788589859A85AA
:102230000E944900DC01CB019E838D838D819E81AC
:102240009A83898389819A810197F1F79A83898397
:102250008FE30E94700F8FE00E94700F81E00E9458
:10226000700F2E960FB6F894DEBF0FBECDBFCF9184
:10227000DF910895DF93CF9300D00F92CDB7DEB7F3
:102280008A836B8319828A81882319F48B818983DD
:1022900006C08A81813019F48B81805C89838981B1
:1022A00080580E94700F0F900F900F90CF91DF9188
:1022B0000895DF93CF93CDB7DEB727970FB6F89485
:1022C000DEBF0FBECDBF9C838B836D834E832F8378
:1022D0001A828D81882F90E0880F991F880F991F8F
:1022E000880F991F8A838A81805C0E94700F1982EF
:1022F0000EC08981282F30E08B819C81FC01E20F88
:10230000F31F80810E940E1089818F5F89838981EC
:10231000883078F38E816F810E943A118D810E94FE
:102320000E1027960FB6F894DEBF0FBECDBFCF912B
:10233000DF910895DF93CF9300D00F92CDB7DEB732
:102340009B838A8319820EC08981282F30E08A817D
:102350009B81FC01E20FF31F80810E940E10898196
:102360008F5F89838981282F30E08A819B81FC01DE
:10237000E20FF31F8081882339F70F900F900F90A1
:10238000CF91DF910895DF93CF93CDB7DEB781E092
:102390000E94700FCF91DF910895DF93CF9300D00B
:1023A00000D0CDB7DEB79A8389837C836B83298184
:1023B0003A8100D000D0EDB7FEB731968B819C8179
:1023C00091838083338322830E9499140F900F900E
:1023D0000F900F908B819C810E949A110F900F900B
:1023E0000F900F90CF91DF910895DF93CF9300D09E
:1023F00000D000D0CDB7DEB769837A838B839C830E
:102400005E834D838DB79EB70A970FB6F8949EBF33
:102410000FBE8DBFEDB7FEB731968D819E81918342
:10242000808386E090E09383828380E690E09583CA
:10243000848389819A81AB81BC8186839783A087BD
:10244000B1870E9468148DB79EB70A960FB6F894AC
:102450009EBF0FBE8DBF8D819E810E949A112696D0
:102460000FB6F894DEBF0FBECDBFCF91DF910895B8
:10247000DF93CF93CDB7DEB783E062E041E00E9407
:10248000C00A80919800882351F40E94070A909313
:102490009E0080939D0081E08093980040C08091D1
:1024A00098008130E9F40E94070A90939C00809381
:1024B0009B0082E08093980020919B0030919C00CB
:1024C00080919D0090919E00A901481B590BCA0163
:1024D0009093A2008093A10080E00E94C9091FC0D0
:1024E000809198008230D9F40E94070A90939A0054
:1024F000809399002091990030919A0080919D00DD
:1025000090919E00A901481B590BCA019093A0000D
:1025100080939F001092980080E00E94AA09CF91BA
:10252000DF910895DF93CF93CDB7DEB7E6970FB66F
:10253000F894DEBF0FBECDBF84E1FE013F96DF0100
:10254000982F1D929A95E9F784E1FE01B396DF0179
:10255000982F1D929A95E9F71092880083E0809356
:10256000890010928A0083E062E041E00E94C20B81
:1025700084E065E041E00E94C20B84E066E041E057
:102580000E94C20B84E067E041E00E94C20B82E03F
:1025900061E00E948A0D88E392E10E94120A88E8B5
:1025A00090E00E947C070E94A40A81E00E94C90971
:1025B00081E00E94AA090E94AC1080E060E00E94C5
:1025C0003A112091A1003091A200ADB7BEB7189783
:1025D0000FB6F894BEBF0FBEADBFEDB7FEB73196D4
:1025E000CE010F969183808384E190E09383828370
:1025F00083E690E095838483378326830E94681462
:102600008DB79EB708960FB6F8949EBF0FBE8DBFCC
:10261000CE010F960E949A1181E060E00E943A116B
:1026200020919F003091A000ADB7BEB718970FB6AC
:10263000F894BEBF0FBEADBFEDB7FEB73196CE0169
:1026400083969183808384E190E09383828380E703
:1026500090E095838483378326830E9468148DB726
:102660009EB708960FB6F8949EBF0FBE8DBFCE01E1
:1026700083960E949A1180E090E0AAE7B4E48B87E9
:102680009C87AD87BE876B857C858D859E8520E088
:1026900030E04AEF54E40E941F02DC01CB018F833B
:1026A0009887A987BA876F81788589859A8520E080
:1026B00030E040E85FE30E94790388232CF481E056
:1026C00090E09E838D833FC06F81788589859A8550
:1026D00020E03FEF4FE757E40E94190318164CF52E
:1026E0006B857C858D859E8520E030E040E251E45D
:1026F0000E941F02DC01CB01BC01CD010E944900F8
:10270000DC01CB019E838D830FC088EC90E09C831D
:102710008B838B819C810197F1F79C838B838D81C7
:102720009E8101979E838D838D819E81009769F79D
:1027300044CF6F81788589859A850E944900DC01A4
:10274000CB019E838D838D819E819A83898389812C
:102750009A810197F1F79A8389832FCF629FD001E5
:10276000739FF001829FE00DF11D649FE00DF11D4C
:10277000929FF00D839FF00D749FF00D659FF00DFB
:102780009927729FB00DE11DF91F639FB00DE11DE8
:10279000F91FBD01CF011124089597FB092E0726CB
:1027A0000AD077FD04D049D006D000201AF47095E5
:1027B00061957F4F0895F6F7909581959F4F089505
:1027C000A1E21A2EAA1BBB1BFD010DC0AA1FBB1F35
:1027D000EE1FFF1FA217B307E407F50720F0A21BA7
:1027E000B30BE40BF50B661F771F881F991F1A9414
:1027F00069F760957095809590959B01AC01BD013E
:10280000CF01089597FB092E05260ED057FD04D061
:10281000D7DF0AD0001C38F45095409530952195AB
:102820003F4F4F4F5F4F0895F6F790958095709505
:1028300061957F4F8F4F9F4F0895AA1BBB1B51E19E
:1028400007C0AA1FBB1FA617B70710F0A61BB70B20
:10285000881F991F5A95A9F780959095BC01CD01C5
:1028600008952F923F924F925F926F927F928F9234
:102870009F92AF92BF92CF92DF92EF92FF920F930F
:102880001F93CF93DF93CDB7DEB7CA1BDB0B0FB619
:10289000F894DEBF0FBECDBF09942A8839884888D6
:1028A0005F846E847D848C849B84AA84B984C8846C
:1028B000DF80EE80FD800C811B81AA81B981CE0F63
:1028C000D11D0FB6F894DEBF0FBECDBFED01089548
:1028D000AEE0B0E0EEE6F4E10C943F140D891E8901
:1028E0008F89988D97FF02C080E090E801979E83C2
:1028F0008D831A83098386E08C839E01255E3F4F7A
:10290000CE010196698D7A8DA9010E94BD144D8179
:102910005E8157FD0AC02F813885421753070CF49A
:102920009A01020F131FF80110822E96E4E00C9416
:102930005B14AEE0B0E0EFE9F4E10C943F140D89D4
:102940001E8986E08C831A8309838FEF9FE79E831D
:102950008D839E01275E3F4FCE0101966F89788D52
:10296000A9010E94BD142F813885020F131FF801A1
:1029700010822E96E4E00C945B14ABE0B0E0E3EC44
:10298000F4E10C9431143C012B015A01FC01178233
:102990001682838181FD03C06FEF7FEFC6C19AE08D
:1029A000892E1E010894211C311CF3012381F201A0
:1029B00023FD859123FF81912F01882309F4B2C162
:1029C000853239F423FD859123FF81912F018532D2
:1029D00029F490E0B3010E94B016E7CF982FFF24AE
:1029E000EE249924FFE1FF15D0F09B3269F09C3270
:1029F00028F4903259F0933291F40EC09D3249F090
:102A0000903369F441E024C052E0F52A84E0F82ACA
:102A100028C098E0F92A25C0E0E1FE2A22C0F7FC90
:102A200029C0892F80538A3070F4F6FE05C0989C27
:102A3000902C1124980E15C0E89CE02C1124E80E6F
:102A4000F0E2FF2A0EC09E3229F4F6FC6BC140E48E
:102A5000F42A07C09C3619F450E8F52A02C09836CB
:102A600049F4F20123FD959123FF91912F019923C0
:102A700009F0B8CF892F8554833018F08052833005
:102A800038F444E050E0A40EB51E5FE359830FC054
:102A9000933631F0933779F0933509F056C020C062
:102AA000F5018081898342E050E0A40EB51E6101EA
:102AB00001E010E012C0F501C080D180F6FC03C037
:102AC0006FEF7FEF02C0692D70E042E050E0A40E8E
:102AD000B51EC6010E94A5168C015FE7F52214C041
:102AE000F501C080D180F6FC03C06FEF7FEF02C01C
:102AF000692D70E042E050E0A40EB51EC6010E94B0
:102B00009A168C0150E8F52AF3FE07C01AC080E23D
:102B100090E0B3010E94B016EA948E2D90E0081761
:102B20001907A8F30EC0F601F7FC8591F7FE819115
:102B30006F0190E0B3010E94B016E110EA940150D9
:102B400010400115110579F7EAC0943611F0993655
:102B500069F5F7FE08C0F50120813181428153817A
:102B600084E090E00AC0F501808191819C014427B6
:102B700037FD4095542F82E090E0A80EB91E9FE6E5
:102B8000F92257FF09C050954095309521953F4F48
:102B90004F4F5F4FE0E8FE2ACA01B901A1012AE0C8
:102BA00030E00E94DC16D82ED21840C0953729F4A8
:102BB0001F2D1F7E2AE030E01DC01F2D197F9F367C
:102BC00061F0903720F4983509F0ACC00FC0903711
:102BD00039F0983709F0A6C004C028E030E00AC0F8
:102BE000106114FD146020E130E004C014FD166093
:102BF00020E132E017FF08C0F50160817181828118
:102C0000938144E050E008C0F50180819181BC01CE
:102C100080E090E042E050E0A40EB51EA1010E94C9
:102C2000DC16D82ED2188FE7F82EF122F6FE0BC054
:102C30005EEFF522D91438F4F4FE07C0F2FC05C0AB
:102C40008FEEF82202C01D2D01C0192DF4FE0DC01B
:102C5000FE01ED0DF11D8081803319F499EEF9220A
:102C600008C01F5FF2FE05C003C08F2D867809F0F3
:102C70001F5F0F2DF3FC14C0F0FE0FC01E1510F0E7
:102C80009D2C0BC09D2C9E0C911A1E2D06C080E21F
:102C900090E0B3010E94B0161F5F1E15C0F304C080
:102CA0001E1510F4E11A01C0EE2404FF0FC080E3EA
:102CB00090E0B3010E94B01602FF1DC001FD03C0E9
:102CC00088E790E00EC088E590E00BC0802F867802
:102CD00091F001FF02C08BE201C080E2F7FC8DE2BF
:102CE00090E0B3010E94B01606C080E390E0B3010B
:102CF0000E94B0169A94D914C0F3DA94F101ED0D44
:102D0000F11D808190E0B3010E94B016DD20A9F78B
:102D100006C080E290E0B3010E94B016EA94EE2073
:102D2000C1F743CEF30166817781CB012B96E2E1B7
:102D30000C944D14FC010590615070400110D8F7BF
:102D4000809590958E0F9F1F0895FC0161507040F3
:102D500001900110D8F7809590958E0F9F1F0895D0
:102D60000F931F93CF93DF938C01EB018B8181FF36
:102D70001BC082FF0DC02E813F818C819D81281751
:102D8000390764F4E881F9810193F983E88306C087
:102D9000E885F985802F0995892B31F48E819F81F3
:102DA00001969F838E8302C00FEF1FEFC801DF9152
:102DB000CF911F910F910895FA01AA27283051F160
:102DC000203181F1E8946F936E7F6E5F7F4F8F4F5C
:102DD0009F4FAF4FB1E03ED0B4E03CD0670F781FBB
:102DE000891F9A1FA11D680F791F8A1F911DA11DA0
:102DF0006A0F711D811D911DA11D20D009F46894D9
:102E00003F912AE0269F11243019305D3193DEF680
:102E1000CF010895462F4770405D4193B3E00FD036
:102E2000C9F7F6CF462F4F70405D4A3318F0495D21
:102E300031FD4052419302D0A9F7EACFB4E0A69504
:102E40009795879577956795BA95C9F70097610526
:102E5000710508959B01AC010A2E0694579547957C
:102E600037952795BA95C9F7620F731F841F951F71
:082E7000A01D0895F894FFCFA6
:102E78002566004F6E2054696D65203D2025690048
:102E880044757479203D2025690000000000000089
:102E98000000020003005A050E000002000200D0E4
:042EA80007003200ED
:00000001FF
