:100000000C942A000C9447000C9447000C94470071
:100010000C9447000C9447000C9447000C94470044
:100020000C9447000C9447000C9447000C94470034
:100030000C9447000C94C2020C947D020C9447006F
:100040000C9447000C9447000C9447000C94470014
:100050000C94470011241FBECFE5D8E0DEBFCDBF12
:1000600010E0A0E6B0E0E2E0FFE002C005900D92F3
:10007000A836B107D9F710E0A8E6B0E001C01D929C
:10008000A037B107E1F70E9441070C947F070C9459
:100090000000DF93CF9300D00F92CDB7DEB79B83E4
:1000A0008A83EA81FB818081882321F489818F7B87
:1000B000898308C0EA81FB818081813019F48981BC
:1000C00080648983EA81FB818181882339F4898175
:1000D0008F7E898389818F7D898317C0EA81FB8127
:1000E0008181823039F489818F7E89838981806220
:1000F00089830BC0EA81FB818181833031F489815E
:1001000080618983898180628983EA81FB81828120
:10011000882321F48981877F898308C0EA81FB8154
:100120008281813019F4898188608983EA81FB8129
:100130008381882371F489818D7F898389818B7F75
:100140008983AAE2B0E0EAE2F0E080818B7F8C93C1
:100150004BC0EA81FB818381813071F489818260A7
:10016000898389818B7F8983AAE2B0E0EAE2F0E0AB
:1001700080818B7F8C9338C0EA81FB8183818230C0
:1001800071F489818D7F8983898184608983AAE262
:10019000B0E0EAE2F0E080818B7F8C9325C0EA81B9
:1001A000FB818381833071F48981826089838981B5
:1001B00084608983AAE2B0E0EAE2F0E080818B7F8C
:1001C0008C9312C0EA81FB818381873069F4898135
:1001D00082608983898184608983AAE2B0E0EAE24F
:1001E000F0E0808184608C93EA81FB8184818823A4
:1001F00021F489818E7F898308C0EA81FB81848113
:10020000813019F48981816089838981806889833B
:10021000E0E4F0E089818083EA81FB8185818823A5
:1002200041F4ABE2B0E0EBE2F0E080818D7F8C93B3
:100230000CC0EA81FB818581813039F4ABE2B0E00A
:10024000EBE2F0E0808182608C93EA81FB81868121
:10025000882341F4ABE2B0E0EBE2F0E080818E7FF6
:100260008C930CC0EA81FB818681813039F4ABE24A
:10027000B0E0EBE2F0E0808181608C93E9E2F0E0B5
:10028000AA81BB8117968C91179780830F900F904E
:100290000F90CF91DF910895DF93CF93CDB7DEB765
:1002A000AAE2B0E0EAE2F0E0808180618C93CF9135
:1002B000DF910895DF93CF93CDB7DEB7AAE2B0E028
:1002C000EAE2F0E080818F7E8C93CF91DF910895F8
:1002D000DF93CF93CDB7DEB7AAE2B0E0EAE2F0E079
:1002E000808188608C93CF91DF910895DF93CF93C5
:1002F000CDB7DEB7AAE2B0E0EAE2F0E08081877F26
:100300008C93CF91DF910895DF93CF9300D0CDB739
:10031000DEB79A838983E981FA818081882341F459
:10032000AAE2B0E0EAE2F0E080818F778C930CC023
:10033000E981FA818081813039F4AAE2B0E0EAE211
:10034000F0E0808180688C93E981FA818181882343
:1003500041F4AAE2B0E0EAE2F0E080818F7B8C9386
:100360000CC0E981FA818181813039F4AAE2B0E0E0
:10037000EAE2F0E0808180648C93E981FA818281F5
:10038000882341F4AAE2B0E0EAE2F0E080818F7DC8
:100390008C930CC0E981FA818281882339F4AAE226
:1003A000B0E0EAE2F0E0808180628C930F900F90E1
:1003B000CF91DF910895DF93CF930F92CDB7DEB742
:1003C0008983EBE2F0E08081829586958770882FA3
:1003D00090E0817090700097A1F3ECE2F0E08981E9
:1003E00080830F90CF91DF910895DF93CF93CDB7A6
:1003F000DEB7EBE2F0E080818823DCF7ECE2F0E0AE
:100400008081CF91DF910895DF93CF9300D00F9239
:10041000CDB7DEB79B838A8319820EC08981282FCE
:1004200030E08A819B81FC01E20FF31F80810E94F2
:10043000DB0189818F5F89838981282F30E08A8160
:100440009B81FC01E20FF31F8081882339F70F9015
:100450000F900F90CF91DF9108950F931F93DF932B
:10046000CF9300D000D0CDB7DEB79B838A836C8357
:10047000198219821AC08981282F30E08A819B81D4
:100480008C01020F131F0E94F501F80180838981FE
:10049000282F30E08A819B81FC01E20FF31F8081CD
:1004A0008D3039F089818F5F898399818C8189179B
:1004B00010F78981282F30E08A819B81FC01E20FAF
:1004C000F31F10820F900F900F900F90CF91DF913C
:1004D0001F910F910895DF93CF9300D0CDB7DEB772
:1004E0009A83898389819A8190936C0080936B00B1
:1004F0000F900F90CF91DF9108951F920F920FB63A
:100500000F9211242F933F934F935F936F937F9399
:100510008F939F93AF93BF93EF93FF93DF93CF930B
:10052000CDB7DEB780916B0090916C00009729F0F9
:10053000E0916B00F0916C000995CF91DF91FF91F4
:10054000EF91BF91AF919F918F917F916F915F914B
:100550004F913F912F910F900FBE0F901F901895C4
:10056000DF93CF9300D0CDB7DEB79A83898389819B
:100570009A8190936E0080936D000F900F90CF91B1
:10058000DF9108951F920F920FB60F9211242F93AF
:100590003F934F935F936F937F938F939F93AF930B
:1005A000BF93EF93FF93DF93CF93CDB7DEB78091E7
:1005B0006D0090916E00009729F0E0916D00F09130
:1005C0006E000995CF91DF91FF91EF91BF91AF91AF
:1005D0009F918F917F916F915F914F913F912F915B
:1005E0000F900FBE0F901F901895DF93CF93CDB74C
:1005F000DEB7AFE5B0E0EFE5F0E0808180688C9396
:10060000CF91DF910895DF93CF93CDB7DEB7AFE5FC
:10061000B0E0EFE5F0E080818F778C93CF91DF91B0
:100620000895DF93CF93CDB7DEB727970FB6F89431
:10063000DEBF0FBECDBF89836A834B838B81882346
:1006400009F075C08981282F30E03F832E838E8189
:100650009F818330910561F12E813F8124303105E6
:1006600034F48E819F818230910569F0D3C02E8150
:100670003F812430310589F18E819F81853091053C
:1006800009F440C0C7C0ABE3B0E0EBE3F0E0808129
:10069000482F8A81282F30E081E090E0022E02C0AE
:1006A000880F991F0A94E2F7809584238C93B2C037
:1006B000A8E3B0E0E8E3F0E08081482F8A81282FAA
:1006C00030E081E090E0022E02C0880F991F0A946A
:1006D000E2F7809584238C939DC0A5E3B0E0E5E329
:1006E000F0E08081482F8A81282F30E081E090E07F
:1006F000022E02C0880F991F0A94E2F78095842386
:100700008C9388C0A2E3B0E0E2E3F0E08081482F60
:100710008A81282F30E081E090E0022E02C0880F0D
:10072000991F0A94E2F7809584238C9373C08B8180
:10073000813009F06FC08981282F30E03D832C8300
:100740008C819D818330910551F12C813D81243034
:10075000310534F48C819D818230910561F05AC05D
:100760002C813D812430310571F18C819D81853052
:100770009105E9F14FC0ABE3B0E0EBE3F0E080813D
:10078000482F8A81282F30E081E090E0022E02C0BD
:10079000880F991F0A94E2F7842B8C933BC0A8E33F
:1007A000B0E0E8E3F0E08081482F8A81282F30E034
:1007B00081E090E0022E02C0880F991F0A94E2F7B0
:1007C000842B8C9327C0A5E3B0E0E5E3F0E08081C3
:1007D000482F8A81282F30E081E090E0022E02C06D
:1007E000880F991F0A94E2F7842B8C9313C0A2E31D
:1007F000B0E0E2E3F0E08081482F8A81282F30E0EA
:1008000081E090E0022E02C0880F991F0A94E2F75F
:10081000842B8C9327960FB6F894DEBF0FBECDBF06
:10082000CF91DF910895DF93CF93CDB7DEB72797B0
:100830000FB6F894DEBF0FBECDBF89836A834B83AA
:100840008B81882309F075C08981282F30E03F8390
:100850002E838E819F818330910561F12E813F81AE
:100860002430310534F48E819F818230910569F006
:10087000D3C02E813F812430310589F18E819F8143
:100880008530910509F440C0C7C0AAE3B0E0EAE3AF
:10089000F0E08081482F8A81282F30E081E090E0CD
:1008A000022E02C0880F991F0A94E2F780958423D4
:1008B0008C93B2C0A7E3B0E0E7E3F0E08081482F7B
:1008C0008A81282F30E081E090E0022E02C0880F5C
:1008D000991F0A94E2F7809584238C939DC0A4E32A
:1008E000B0E0E4E3F0E08081482F8A81282F30E0F7
:1008F00081E090E0022E02C0880F991F0A94E2F76F
:10090000809584238C9388C0A1E3B0E0E1E3F0E01C
:100910008081482F8A81282F30E081E090E0022EEC
:1009200002C0880F991F0A94E2F7809584238C9364
:1009300073C08B81813009F06FC08981282F30E02E
:100940003D832C838C819D818330910551F12C81D5
:100950003D812430310534F48C819D8182309105B4
:1009600061F05AC02C813D812430310571F18C81B8
:100970009D8185309105E9F14FC0AAE3B0E0EAE33B
:10098000F0E08081482F8A81282F30E081E090E0DC
:10099000022E02C0880F991F0A94E2F7842B8C93D1
:1009A0003BC0A7E3B0E0E7E3F0E08081482F8A8115
:1009B000282F30E081E090E0022E02C0880F991FBE
:1009C0000A94E2F7842B8C9327C0A4E3B0E0E4E31D
:1009D000F0E08081482F8A81282F30E081E090E08C
:1009E000022E02C0880F991F0A94E2F7842B8C9381
:1009F00013C0A1E3B0E0E1E3F0E08081482F8A81F9
:100A0000282F30E081E090E0022E02C0880F991F6D
:100A10000A94E2F7842B8C9327960FB6F894DEBFE6
:100A20000FBECDBFCF91DF910895DF93CF9300D05C
:100A300000D000D0CDB7DEB789836A835C834B8357
:100A40008981282F30E03E832D834D815E814330A4
:100A5000510559F18D819E818430910534F42D81A9
:100A60003E812230310569F05BC04D815E814430AA
:100A7000510579F18D819E818530910509F43DC044
:100A80004FC0E9E3F0E08081282F30E08A81882F91
:100A900090E0A90102C0559547958A95E2F7CA01F1
:100AA0008170EB81FC8180833BC0E6E3F0E08081D4
:100AB000282F30E08A81882F90E0A90102C0559547
:100AC00047958A95E2F7CA018170EB81FC818083AA
:100AD00027C0E3E3F0E08081282F30E08A81882F6F
:100AE00090E0A90102C0559547958A95E2F7CA01A1
:100AF0008170EB81FC81808313C0E0E3F0E08081B2
:100B0000282F30E08A81882F90E0A90102C05595F6
:100B100047958A95E2F7CA018170EB81FC81808359
:100B200026960FB6F894DEBF0FBECDBFCF91DF91F2
:100B30000895DF93CF9300D000D0CDB7DEB789837F
:100B40006A838981282F30E03C832B838B819C81B1
:100B500083309105D9F02B813C812430310534F468
:100B60008B819C818230910561F01EC02B813C817C
:100B70002430310581F08B819C818530910581F095
:100B800013C0EBE3F0E08A8180830EC0E8E3F0E07D
:100B90008A81808309C0E5E3F0E08A81808304C014
:100BA000E2E3F0E08A8180830F900F900F900F9026
:100BB000CF91DF910895DF93CF9300D000D000D084
:100BC000CDB7DEB789836A838A81882381F58981DD
:100BD000282F30E03E832D838D819E8183309105C7
:100BE000D1F02D813E812430310534F48D819E81F8
:100BF0008230910561F051C02D813E812430310554
:100C000071F08D819E818530910569F046C0EAE3DF
:100C1000F0E0108242C0E7E3F0E010823EC0E4E37F
:100C2000F0E010823AC0E1E3F0E0108236C08A8141
:100C3000813099F58981282F30E03C832B838B818B
:100C40009C8183309105D9F02B813C812430310582
:100C500034F48B819C818230910561F01EC02B8120
:100C60003C812430310581F08B819C818530910558
:100C700081F013C0EAE3F0E08FEF80830EC0E7E37A
:100C8000F0E08FEF808309C0E4E3F0E08FEF808332
:100C900004C0E1E3F0E08FEF808326960FB6F8946E
:100CA000DEBF0FBECDBFCF91DF910895DF93CF930D
:100CB00000D000D00F92CDB7DEB789837B836A83E3
:100CC0008981282F30E03D832C838C819D81833066
:100CD0009105E9F02C813D812430310534F48C817B
:100CE0009D818230910561F026C02C813D812430A8
:100CF0003105A1F08C819D8185309105B1F01BC03B
:100D0000E9E3F0E08081EA81FB81808314C0E6E3BF
:100D1000F0E08081EA81FB8180830DC0E3E3F0E0B5
:100D20008081EA81FB81808306C0E0E3F0E080817E
:100D3000EA81FB8180830F900F900F900F900F90AE
:100D4000CF91DF910895DF93CF93CDB7DEB7A7E2C0
:100D5000B0E0E7E2F0E0808180648C93A7E2B0E04D
:100D6000E7E2F0E080818F778C93A7E2B0E0E7E2E2
:100D7000F0E0808180628C93A6E2B0E0E6E2F0E0F1
:100D8000808181608C93A6E2B0E0E6E2F0E08081B1
:100D900082608C93A6E2B0E0E6E2F0E080818460BD
:100DA0008C93A6E2B0E0E6E2F0E0808180688C936C
:100DB000CF91DF910895DF93CF930F92CDB7DEB738
:100DC0008983A7E2B0E0E7E2F0E08081807E8C9347
:100DD000A7E2B0E0E7E2F0E090818981892B8C9373
:100DE000A6E2B0E0E6E2F0E0808180648C93E6E287
:100DF000F0E0808182958F70882F90E081709070F4
:100E00000097A9F3A6E2B0E0E6E2F0E0808180611D
:100E10008C93E5E2F0E080810F90CF91DF9108950F
:100E2000DF93CF9300D00F92CDB7DEB78B838B814A
:100E3000882F90E0A0E0B0E023E130E040E050E017
:100E4000BC01CD010E946007DC01CB019A8389833C
:100E500089819A810F900F900F90CF91DF91089523
:100E6000DF93CF93CDB7DEB7ECE2F0E0808181363F
:100E700029F482E062E041E00E941103CF91DF910A
:100E80000895DF93CF93CDB7DEB782E062E041E013
:100E90000E94130480E397E00E94B0020E94680160
:100EA0000E944C0180E690E00E9449000E94F502F9
:100EB00081E08093680088E690E00E948401FFCF83
:100EC000629FD001739FF001829FE00DF11D649F2E
:100ED000E00DF11D929FF00D839FF00D749FF00DBA
:100EE000659FF00D9927729FB00DE11DF91F639F5B
:100EF000B00DE11DF91FBD01CF0111240895F89433
:020F0000FFCF21
:080F02000000000300000033B1
:00000001FF
