:100000000C942A000C9478120C94BD120C940213D8
:100010000C94530F0C949C0F0C94C0100C94E50F8F
:100020000C942E100C9477100C94C10E0C940A0FA3
:100030000C94C9110C94BE080C9447000C94470012
:100040000C9447000C9447000C9447000C94470014
:100050000C94470011241FBECFE5D8E0DEBFCDBF12
:1000600011E0A0E6B0E0ECE8F0E402C005900D92EB
:10007000AE3BB107D9F711E0AEEBB1E001C01D9284
:10008000A23EB107E1F70E94141C0C9444200C948A
:100090000000EF92FF920F931F937B018C0120E0F1
:1000A00030E040E05FE40E94F50388238CF0C80153
:1000B000B70120E030E040E05FE40E94C1010E940F
:1000C000B3049B01AC01205030404040504806C072
:1000D000C801B7010E94B3049B01AC01B901CA0178
:1000E0001F910F91FF90EF900895A0E0B0E0EBE733
:1000F000F0E00C940D20DC012B01FA019C91923070
:1001000008F439C1EB018881823008F433C194309E
:1001100069F4843009F02FC111969C91119789815F
:10012000981709F428C1ABE9B0E025C1843009F47F
:1001300021C18230A9F4923009F01DC19A01AD01AC
:1001400088E0EA010990AE01E90109929E0181501F
:10015000C1F7E201898111969C918923818308C1AD
:10016000923009F407C112962D903C901397EB0141
:100170008A819B811496AD90BD90CD90DC901797AD
:10018000EC80FD800E811F819101281B390BB90184
:1001900037FF04C066277727621B730B6032710537
:1001A0000CF061C0121613066CF537014801062EDB
:1001B00004C096948794779467940A94D2F721E0C8
:1001C00030E040E050E004C0220F331F441F551FB1
:1001D0006A95D2F721503040404050402E213F21B7
:1001E00040235123211531054105510521F021E01E
:1001F00030E040E050E079018A01E628F72808293C
:1002000019293CC0232BD1F1260E371E350146019A
:10021000062E04C096948794779467940A94D2F734
:1002200021E030E040E050E004C0220F331F441FC3
:10023000551F6A95D2F721503040404050402A2146
:100240003B214C215D21211531054105510521F04E
:1002500021E030E040E050E059016A01A628B728CB
:10026000C828D9280BC0821593052CF01C01AA249C
:10027000BB24650103C0EE24FF24870111969C91E5
:10028000D20111968C91981709F445C0992339F041
:10029000A80197012A193B094C095D0906C0A6016E
:1002A00095012E193F09400B510B57FD08C01182D3
:1002B0003382228224833583468357831DC081E0A5
:1002C00081833382228288279927DC01821B930B4A
:1002D000A40BB50B84839583A683B7830DC0220F2F
:1002E000331F441F551F24833583468357838281E0
:1002F000938101979383828324813581468157813D
:10030000DA01C9010197A109B1098F5F9F4FAF4F72
:10031000BF4328F30BC0918333822282EA0CFB1C7B
:100320000C1D1D1DE482F5820683178383E0808304
:10033000248135814681578157FF1AC0C901AA27F8
:1003400097FDA095BA2F81709070A070B0705695EF
:10035000479537952795822B932BA42BB52B848318
:100360009583A683B7838281938101969383828349
:10037000DF0101C0D201CD01CDB7DEB7E2E10C94BF
:100380002920A0E2B0E0E7ECF1E00C9419206983A9
:100390007A838B839C832D833E834F835887E9E048
:1003A000EE2EF12CEC0EFD1ECE010196B7010E943F
:1003B000A4068E010F5E1F4FCE010596B8010E9464
:1003C000A4068A8991E089278A8BC701B801AE010A
:1003D000475E5F4F0E9475000E94CF05A096E6E041
:1003E0000C943520A0E2B0E0E8EFF1E00C94192085
:1003F00069837A838B839C832D833E834F835887C5
:10040000F9E0EF2EF12CEC0EFD1ECE010196B701A6
:100410000E94A4068E010F5E1F4FCE010596B80103
:100420000E94A406C701B801AE01475E5F4F0E945B
:1004300075000E94CF05A096E6E00C943520A0E25E
:10044000B0E0E5E2F2E00C940D2069837A838B83BF
:100450009C832D833E834F835887CE010196BE0136
:10046000675F7F4F0E94A406CE010596BE016F5EB6
:100470007F4F0E94A4069985923088F08989823046
:10048000C8F0943019F4823051F404C0843029F457
:10049000923081F48BE990E0C6C0923049F420E0BC
:1004A0009A858A89981321E02A87CE010996BBC0D4
:1004B000823049F420E09A858A89981321E02A8BBA
:1004C000CE014196B0C02D843E844F8458886D88FB
:1004D0007E888F88988CEE24FF248701AA24BB2471
:1004E000650140E050E060E070E0E0E0F0E0C10174
:1004F00081709070892BE9F0E60CF71C081D191D1E
:100500009A01AB012A0D3B1D4C1D5D1D80E090E062
:10051000A0E0B0E0E614F7040805190520F481E036
:1005200090E0A0E0B0E0BA01A901480F591F6A1F8E
:100530007B1FAA0CBB1CCC1CDD1C97FE08C081E0F5
:1005400090E0A0E0B0E0A82AB92ACA2ADB2A3196B6
:10055000E032F10549F0660C771C881C991C569412
:10056000479437942794C3CFFA85EA892B893C892D
:100570008B859C85280F391F2E5F3F4F17C0CA01FE
:1005800081709070892B61F016950795F794E79428
:1005900080E090E0A0E0B0E8E82AF92A0A2B1B2BC3
:1005A00076956795579547952F5F3F4F77FDE7CF36
:1005B0000CC0440F551F661F771F17FD4160EE0CDE
:1005C000FF1C001F111F21503040403090E05907A0
:1005D00090E0690790E4790760F32B8F3C8FDB0193
:1005E000CA018F779070A070B07080349105A1051A
:1005F000B10561F447FD0AC0E114F10401051105DC
:1006000029F0405C5F4F6F4F7F4F40781A8EFE1786
:1006100011F081E08A8F4D8F5E8F6F8F78A383E01A
:10062000898FCE0149960E94CF05A096E2E10C94F5
:100630002920A8E1B0E0EFE1F3E00C9415206983F4
:100640007A838B839C832D833E834F835887B9E0C5
:10065000EB2EF12CEC0EFD1ECE010196B7010E948F
:10066000A4068E010F5E1F4FCE010596B8010E94B1
:10067000A4062985223008F47EC03989323010F46E
:10068000B8017CC08A859A8989278A87243011F02D
:10069000223031F4231709F06EC06BE970E06EC0B0
:1006A000343039F41D861E861F86188A1C861B86E8
:1006B00004C0323021F484E08987B7015FC02B8504
:1006C0003C858B899C89281B390B3C872B87ED84C3
:1006D000FE840F851889AD88BE88CF88D88CEA142F
:1006E000FB040C051D0540F4EE0CFF1C001F111F40
:1006F000215030403C872B8720E030E040E050E044
:1007000080E090E0A0E0B0E460E070E0EA14FB0478
:100710000C051D0540F0282B392B4A2B5B2BEA18C2
:10072000FB080C091D09B695A79597958795EE0CC2
:10073000FF1C001F111F6F5F7F4F6F31710531F775
:10074000DA01C9018F779070A070B0708034910584
:10075000A105B10561F427FD0AC0E114F10401050A
:10076000110529F0205C3F4F4F4F5F4F20782D87B8
:100770003E874F87588BBE01675F7F4FCB010E943A
:10078000CF056896EAE00C943120A8E1B0E0EBECEC
:10079000F3E00C94192069837A838B839C832D83E7
:1007A0003E834F83588789E0E82EF12CEC0EFD1E26
:1007B000CE010196B7010E94A4068E010F5E1F4F65
:1007C000CE010596B8010E94A4068985823040F0CA
:1007D0008989823028F0C701B8010E941C0701C036
:1007E0008FEF6896E6E00C943520A8E1B0E0EBEFDF
:1007F000F3E00C94192069837A838B839C832D8387
:100800003E834F83588789E0E82EF12CEC0EFD1EC5
:10081000CE010196B7010E94A4068E010F5E1F4F04
:10082000CE010596B8010E94A4068985823040F069
:100830008989823028F0C701B8010E941C0701C0D5
:100840008FEF6896E6E00C943520A8E1B0E0EBE28B
:10085000F4E00C94192069837A838B839C832D8325
:100860003E834F83588789E0E82EF12CEC0EFD1E65
:10087000CE010196B7010E94A4068E010F5E1F4FA4
:10088000CE010596B8010E94A4068985823040F009
:100890008989823028F0C701B8010E941C0701C075
:1008A00081E06896E6E00C943520A8E0B0E0EBE546
:1008B000F4E00C9416209B01AC0183E08983DA01FB
:1008C000C9018827B7FD83959927AA27BB27B82E8A
:1008D000211531054105510519F482E089833AC09B
:1008E0008823A9F0203080E0380780E0480780E8BE
:1008F000580729F460E070E080E09FEC30C0EE24FF
:10090000FF248701E21AF30A040B150B02C07901D8
:100910008A018EE1C82ED12CDC82CB82ED82FE8250
:100920000F831887C801B7010E9480050197181628
:10093000190684F4082E04C0EE0CFF1C001F111FC2
:100940000A94D2F7ED82FE820F831887C81AD90A5B
:10095000DC82CB82BA82CE0101960E94CF05289616
:10096000E9E00C943220ACE0B0E0E9EBF4E00C9468
:100970001D2069837A838B839C83CE010196BE01FF
:100980006B5F7F4F0E94A4068D81823061F18230BF
:1009900050F1843021F48E81882351F12EC02F81B3
:1009A000388537FD20C06E812F3131051CF066235C
:1009B000F9F023C08EE190E0821B930B29853A85E4
:1009C0004B855C8504C056954795379527958A9544
:1009D000D2F76623B1F050954095309521953F4F61
:1009E0004F4F5F4F0EC020E030E040E050E009C0C4
:1009F0002FEF3FEF4FEF5FE704C020E030E040E033
:100A000050E8B901CA012C96E2E00C943920A8E024
:100A1000B0E0EDE0F5E00C9415207B018C01611550
:100A200071058105910519F482E0898360C083E036
:100A300089838EE1C82ED12CDC82CB82ED82FE82AE
:100A40000F831887C801B7010E948005FC01319708
:100A5000F7FF3BC0222733272E1B3F0B57016801AE
:100A6000022E04C0D694C794B794A7940A94D2F7E0
:100A700040E050E060E070E081E090E0A0E0B0E0B5
:100A800004C0880F991FAA1FBB1F2A95D2F7019790
:100A9000A109B1098E219F21A023B1230097A105AF
:100AA000B10521F041E050E060E070E04A295B29A7
:100AB0006C297D294D835E836F8378878EE190E07A
:100AC0008E1B9F0B9C838B8312C0309781F00E2E60
:100AD00004C0EE0CFF1C001F111F0A94D2F7ED8218
:100AE000FE820F831887CE1ADF0ADC82CB821A823D
:100AF000CE0101960E94CF052896EAE00C943120A1
:100B0000EF92FF920F931F937B018C0180E0E81618
:100B100080E0F80681E0080780E0180788F48FEF8E
:100B2000E816F1040105110531F028F088E090E0A5
:100B3000A0E0B0E017C080E090E0A0E0B0E012C01C
:100B400080E0E81680E0F80680E0080781E01807FA
:100B500028F088E190E0A0E0B0E004C080E190E0FF
:100B6000A0E0B0E020E230E040E050E0281B390B8C
:100B70004A0B5B0B04C016950795F794E7948A958A
:100B8000D2F7F701ED55FF4F8081281B310941094C
:100B90005109C9011F910F91FF90EF900895DF92C5
:100BA000EF92FF920F931F93FC01E480F580068182
:100BB0001781D1808081823048F480E090E0A0E10C
:100BC000B0E0E82AF92A0A2B1B2BA5C0843009F4CF
:100BD0009FC0823021F4EE24FF24870105C0E11478
:100BE000F1040105110519F4E0E0F0E096C062811E
:100BF00073819FEF623879070CF05BC022E83FEF0A
:100C0000261B370B2A3131052CF020E030E040E084
:100C100050E02AC0B801A701022E04C0769567955E
:100C2000579547950A94D2F781E090E0A0E0B0E0B4
:100C300004C0880F991FAA1FBB1F2A95D2F70197DE
:100C4000A109B1098E219F21A023B1230097A105FD
:100C5000B10521F081E090E0A0E0B0E09A01AB01A5
:100C6000282B392B4A2B5B2BDA01C9018F77907027
:100C7000A070B07080349105A105B10539F427FF4B
:100C800009C0205C3F4F4F4F5F4F04C0215C3F4F76
:100C90004F4F5F4FE0E0F0E02030A0E03A07A0E0E7
:100CA0004A07A0E45A0710F0E1E0F0E079018A0178
:100CB00027C06038710564F5FB01E158FF4FD8018A
:100CC000C7018F779070A070B07080349105A10536
:100CD000B10539F4E7FE0DC080E490E0A0E0B0E09B
:100CE00004C08FE390E0A0E0B0E0E80EF91E0A1F18
:100CF0001B1F17FF05C016950795F794E7943196CB
:100D000087E016950795F794E7948A95D1F705C083
:100D1000EE24FF248701EFEFF0E06E2F6795662742
:100D20006795902F9F77D794DD24D7948E2F869543
:100D3000492F462B582F5D29B701CA011F910F91EA
:100D4000FF90EF90DF900895FC01DB01408151811D
:100D50002281622F6F7770E0221F2227221F93814A
:100D6000892F880F822B282F30E0991F9927991FF0
:100D700011969C93119721153105A9F5411551053F
:100D80006105710511F482E037C082E89FEF139688
:100D90009C938E9312979A01AB0167E0220F331F49
:100DA000441F551F6A95D1F783E08C930DC0220F25
:100DB000331F441F551F12968D919C9113970197D5
:100DC00013969C938E931297203080E0380780E032
:100DD000480780E4580758F314962D933D934D939C
:100DE0005C93179708952F3F310579F4411551050C
:100DF0006105710519F484E08C93089564FF03C0C4
:100E000081E08C9312C01C9210C02F573040139673
:100E10003C932E93129783E08C9387E0440F551FE9
:100E2000661F771F8A95D1F7706414964D935D9372
:100E30006D937C93179708951F93DC01FB019C91A0
:100E4000923008F447C08081823008F443C0943067
:100E500051F411961C91843099F58181682F70E0CE
:100E6000611B71093FC0843021F0923031F482302F
:100E7000B9F18181882389F12DC011961C911197B8
:100E80008230F1F081811817D9F412962D913C919E
:100E90001397828193818217930794F0281739075B
:100EA000BCF014968D919D910D90BC91A02D248144
:100EB000358146815781281739074A075B0718F49F
:100EC000112341F00AC082179307A407B50740F425
:100ED000112319F061E070E005C06FEF7FEF02C0F1
:100EE00060E070E0CB011F910895DF93CF93CDB701
:100EF000DEB7AAE2B0E0EAE2F0E0808180618C93A4
:100F0000AAE2B0E0EAE2F0E0808188608C93AAE295
:100F1000B0E0EAE2F0E0808180688C93AAE2B0E081
:100F2000EAE2F0E080818C93AAE2B0E0EAE2F0E04D
:100F300080818C93AAE2B0E0EAE2F0E080818460F4
:100F40008C93A0E4B0E0E0E4F0E0808180688C93D2
:100F5000A0E4B0E0E0E4F0E080818C93A0E4B0E0B5
:100F6000E0E4F0E080818C93A0E4B0E0E0E4F0E025
:100F700080818C93A0E4B0E0E0E4F0E080818660C2
:100F80008C93E9E2F0E083E38083CF91DF910895D1
:100F9000DF93CF930F92CDB7DEB78983EBE2F0E01A
:100FA0008081829586958770882F90E081709070FF
:100FB0000097A1F3ECE2F0E0898180830F90CF915C
:100FC000DF910895DF93CF93CDB7DEB7EBE2F0E08A
:100FD00080818823DCF7ECE2F0E08081CF91DF9123
:100FE0000895DF93CF930F92CDB7DEB78983EBE2FD
:100FF000F0E08081829586958770882F90E08170DF
:1010000090700097A1F3AAE2B0E0EAE2F0E08081FC
:101010008C93ECE2F0E0898180830F90CF91DF9197
:101020000895DF93CF9300D0CDB7DEB71A8219822F
:10103000EBE2F0E080818823DCF7EAE2F0E08081F7
:101040008695882F90E081709070982F88279A83DA
:101050008983ECE2F0E08081282F30E089819A8159
:10106000822B932B9A83898389819A810F900F9089
:10107000CF91DF910895DF93CF9300D00F92CDB73A
:10108000DEB79B838A8319820EC08981282F30E0C6
:101090008A819B81FC01E20FF31F80810E94C807B7
:1010A00089818F5F89838981282F30E08A819B81A4
:1010B000FC01E20FF31F80818D3059F08981282FC8
:1010C00030E08A819B81FC01E20FF31F808188233D
:1010D000E1F60F900F900F90CF91DF9108950F934D
:1010E0001F93DF93CF9300D00F92CDB7DEB79B83D2
:1010F0008A8319820FC08981282F30E08A819B81E1
:101100008C01020F131F0E94E207F801808389817E
:101110008F5F89838981882F90E09C012150304026
:101120008A819B81FC01E20FF31F80818D3019F7CA
:101130000F900F900F90CF91DF911F910F91089515
:10114000DF93CF93CDB7DEB7EBE2F0E08081882369
:10115000DCF7CF91DF910895DF93CF9300D0CDB727
:10116000DEB79A83898389819A819093BF018093A6
:10117000BE010F900F90CF91DF9108951F920F92B3
:101180000FB60F9211242F933F934F935F936F935A
:101190007F938F939F93AF93BF93EF93FF93DF93CF
:1011A000CF93CDB7DEB78091BE019091BF0100977C
:1011B00029F0E091BE01F091BF010995CF91DF9137
:1011C000FF91EF91BF91AF919F918F917F916F911F
:1011D0005F914F913F912F910F900FBE0F901F90F5
:1011E0001895DF93CF93CDB7DEB727970FB6F89456
:1011F000DEBF0FBECDBF89836A834B838981823076
:1012000009F067C0A3E5B0E0E3E5F0E080818F7B03
:101210008C93A3E5B0E0E3E5F0E08081877F8C93D9
:101220008A81282F30E03F832E838E819F818230F8
:10123000910591F02E813F8123303105A9F08E81F7
:101240009F8181309105F1F4A3E5B0E0E3E5F0E0A2
:10125000808180648C9316C0A3E5B0E0E3E5F0E004
:10126000808188608C930EC0A3E5B0E0E3E5F0E0F8
:10127000808180648C93A3E5B0E0E3E5F0E08081B9
:1012800088608C93A3E5B0E0E3E5F0E080818F7E99
:101290008C93A3E5B0E0E3E5F0E080818F7D8C9353
:1012A000A3E5B0E0E3E5F0E08081282F8A81882F74
:1012B00090E082959295907F9827807F9827822B47
:1012C0008C93A3E5B0E0E3E5F0E0808181608C934E
:1012D0006AC08981843009F066C0A5E4B0E0E5E425
:1012E000F0E080818F7B8C93A5E4B0E0E5E4F0E052
:1012F0008081877F8C938A81282F30E03D832C83E7
:101300008C819D818230910591F02C813D8123302B
:101310003105A9F08C819D8181309105F1F4A5E41E
:10132000B0E0E5E4F0E0808180648C9316C0A5E431
:10133000B0E0E5E4F0E0808188608C930EC0A5E425
:10134000B0E0E5E4F0E0808180648C93A5E4B0E057
:10135000E5E4F0E0808188608C93A5E4B0E0E5E40A
:10136000F0E080818F7E8C93A5E4B0E0E5E4F0E0CE
:1013700080818F7D8C93A5E4B0E0E5E4F0E080818E
:10138000282F8A81882F90E082959295907F9827C8
:10139000807F9827822B8C93A5E4B0E0E5E4F0E011
:1013A000808181608C9327960FB6F894DEBF0FBEC4
:1013B000CDBFCF91DF910895DF93CF9300D0CDB70C
:1013C000DEB789836A838981823029F4ECE5F0E015
:1013D0008A81808307C08981843021F4E3E4F0E0CE
:1013E0008A8180830F900F90CF91DF9108950F93A2
:1013F0001F93DF93CF9300D0CDB7DEB789836A8385
:1014000089818230C1F40CE510E08A81882F90E058
:10141000A0E0B0E0BA2FA92F982F882724E630E06B
:1014200040E050E0BC01CD010E94EB1FDA01C90190
:10143000F80180831AC089818430B9F403E410E094
:101440008A81882F90E0A0E0B0E0BA2FA92F982FD2
:10145000882724E630E040E050E0BC01CD010E9446
:10146000EB1FDA01C901F80180830F900F90CF9133
:10147000DF911F910F9108950F931F93DF93CF93E7
:1014800000D0CDB7DEB789836A8389818230C9F401
:101490000CE510E08A81882F90E0A0E0B0E0BA2F40
:1014A000A92F982F882724E630E040E050E0BC01C7
:1014B000CD010E94EB1FDA01C9018195F8018083FB
:1014C0001BC089818430C1F403E410E08A81882F35
:1014D00090E0A0E0B0E0BA2FA92F982F882724E64B
:1014E00030E040E050E0BC01CD010E94EB1FDA018A
:1014F000C9018195F80180830F900F90CF91DF9102
:101500001F910F910895DF93CF9300D000D0CDB7F6
:10151000DEB789836A83AFE4B0E0EFE4F0E0808176
:101520008E7F8C93AFE4B0E0EFE4F0E080818D7FBC
:101530008C93AEE4B0E0EEE4F0E08081877F8C93A2
:10154000AEE4B0E0EEE4F0E080818F7E8C938981A0
:10155000282F30E03C832B838B819C818730910541
:1015600009F496C02B813C81283031052CF58B8104
:101570009C818330910509F45CC02B813C8124302F
:1015800031056CF48B819C818130910509F43FC059
:101590002B813C812230310509F442C0E2C08B81AD
:1015A0009C818530910509F455C02B813C81263002
:1015B00031050CF05EC046C08B819C818B3091055B
:1015C00009F49BC02B813C812C3031056CF48B815C
:1015D0009C818930910509F472C02B813C812A30AD
:1015E00031050CF07BC063C08B819C818D309105EF
:1015F00009F49AC02B813C812D3031050CF48CC04C
:101600008B819C818E30910509F49DC0AAC0AFE406
:10161000B0E0EFE4F0E090818981892B8C93A1C048
:10162000AFE4B0E0EFE4F0E090818981892B8C9306
:1016300098C0AFE4B0E0EFE4F0E090818981892BBD
:101640008C938FC0AEE4B0E0EEE4F0E0808188607F
:101650008C9387C0AFE4B0E0EFE4F0E0808181607C
:101660008C93AEE4B0E0EEE4F0E0808188608C938F
:1016700078C0AFE4B0E0EFE4F0E0808182608C936A
:10168000AEE4B0E0EEE4F0E0808188608C9369C065
:10169000AFE4B0E0EFE4F0E0808183608C93AEE4EF
:1016A000B0E0EEE4F0E0808188608C935AC0AEE454
:1016B000B0E0EEE4F0E0808180618C9352C0AFE452
:1016C000B0E0EFE4F0E0808181608C93AEE4B0E0C4
:1016D000EEE4F0E0808180618C9343C0AFE4B0E041
:1016E000EFE4F0E0808182608C93AEE4B0E0EEE461
:1016F000F0E0808180618C9334C0AFE4B0E0EFE42F
:10170000F0E0808183608C93AEE4B0E0EEE4F0E042
:10171000808180618C9325C0AEE4B0E0EEE4F0E01F
:10172000808188618C931DC0AFE4B0E0EFE4F0E00D
:10173000808182608C93AEE4B0E0EEE4F0E08081E2
:1017400088618C930EC0AFE4B0E0EFE4F0E08081FC
:1017500083608C93AEE4B0E0EEE4F0E080818861D9
:101760008C93AFE4B0E0EFE4F0E080818F708C9375
:10177000AFE4B0E0EFE4F0E08081282F8A81882F89
:1017800090E082959295907F9827807F9827822B72
:101790008C93AEE4B0E0EEE4F0E0808181608C9365
:1017A0000F900F900F900F90CF91DF910895DF93DE
:1017B000CF9300D0CDB7DEB79A838983ECE4F0E015
:1017C00089819A81918380830F900F90CF91DF91CF
:1017D0000895DF93CF9300D00F92CDB7DEB7898302
:1017E0007B836A8389818F3039F4EAE4F0E08A816F
:1017F0009B819183808313C08981803139F4E8E42F
:10180000F0E08A819B819183808309C08981813145
:1018100031F4E6E4F0E08A819B81918380830F902C
:101820000F900F90CF91DF910895DF93CF93CDB7B5
:10183000DEB729970FB6F894DEBF0FBECDBF898300
:101840006A834B838981823009F03EC08A81282FC8
:1018500030E039872887888599858530910531F072
:101860002885398526303105C1F00CC18B81813046
:1018700041F4A9E5B0E0E9E5F0E0808182608C9375
:1018800001C18B81882309F0FDC0A9E5B0E0E9E53D
:10189000F0E080818D7F8C93F5C08B81813041F4A5
:1018A000A9E5B0E0E9E5F0E0808181608C93EAC0D1
:1018B0008B81882309F0E6C0A9E5B0E0E9E5F0E016
:1018C00080818E7F8C93DEC08981833009F09CC03B
:1018D0008A81282F30E03F832E838E819F8187303D
:1018E000910571F12E813F812830310534F48E81CC
:1018F0009F818630910569F0C5C02E813F812830D7
:101900003105A9F18E819F818930910509F446C086
:10191000B9C08B81813041F4A9E5B0E0E9E5F0E0A0
:10192000808184608C93AEC08B81882309F0AAC02B
:10193000A9E5B0E0E9E5F0E080818B7F8C93A2C05F
:101940008B81813041F4A9E5B0E0E9E5F0E08081E8
:1019500080618C9397C08B81882309F093C0A9E59F
:10196000B0E0E9E5F0E080818F7E8C938BC08B81C5
:10197000813041F4A9E5B0E0E9E5F0E080818860DC
:101980008C9380C08B81882309F07CC0A9E5B0E0EE
:10199000E9E5F0E08081877F8C9374C08B81882398
:1019A00041F4A9E5B0E0E9E5F0E080818F7D8C931A
:1019B00069C0A9E5B0E0E9E5F0E0808180628C9340
:1019C0008B818130A9F4AEE4B0E0EEE4F0E08081F8
:1019D000282F8B81882F90E0002496958795079477
:1019E000969587950794982F802D822B8C934AC0CB
:1019F0008B81823009F046C0AEE4B0E0EEE4F0E066
:101A000080818F7B8C933EC089818430D9F58A8117
:101A1000282F30E03D832C838C819D81853091057A
:101A200031F02C813D8126303105B9F02BC08B81FE
:101A3000813041F4A9E5B0E0E9E5F0E0808180681B
:101A40008C9320C08B818823E9F4A9E5B0E0E9E517
:101A5000F0E080818F778C9315C08B81813041F4C9
:101A6000A9E5B0E0E9E5F0E0808180648C930AC0EC
:101A70008B81882339F4A9E5B0E0E9E5F0E08081C5
:101A80008F7B8C9329960FB6F894DEBF0FBECDBF27
:101A9000CF91DF910895DF93CF93CDB7DEB7E6E422
:101AA000F0E080819181CF91DF910895DF93CF9312
:101AB000CDB7DEB7E8E5F0E08081882F90E0807256
:101AC00090700097B9F3CF91DF910895DF93CF9392
:101AD0000F92CDB7DEB7898389818130A9F4AEE456
:101AE000B0E0EEE4F0E08081282F8981882F90E03B
:101AF0000024969587950794969587950794982F37
:101B0000802D822B8C930AC08981823039F4AEE417
:101B1000B0E0EEE4F0E080818F7B8C930F90CF916A
:101B2000DF9108950F931F93DF93CF9300D0CDB72C
:101B3000DEB789836A8389818F30F9F40AE410E083
:101B40008A81882F90E0A0E0B0E02FEF3FEF40E0E7
:101B500050E0BC01CD010E94B81FDC01CB0124E69E
:101B600030E040E050E0BC01CD010E94EB1FDA0103
:101B7000C901F8019183808321C089818031F1F40A
:101B800008E410E08A81882F90E0A0E0B0E02FEF19
:101B90003FEF40E050E0BC01CD010E94B81FDC01E6
:101BA000CB0124E630E040E050E0BC01CD010E94D2
:101BB000EB1FDA01C901F801918380830F900F9028
:101BC000CF91DF911F910F9108950F931F93DF9392
:101BD000CF9300D0CDB7DEB789836A8389818F30F8
:101BE00009F50AE410E08A81882F90E0A0E0B0E0D7
:101BF0002FEF3FEF40E050E0BC01CD010E94B81F45
:101C0000DC01CB0124E630E040E050E0BC01CD0136
:101C10000E94EB1FDA01C90180959095F80191832C
:101C2000808323C08981803101F508E410E08A8136
:101C3000882F90E0A0E0B0E02FEF3FEF40E050E0D1
:101C4000BC01CD010E94B81FDC01CB0124E630E0CD
:101C500040E050E0BC01CD010E94EB1FDA01C90158
:101C600080959095F801918380830F900F90CF918C
:101C7000DF911F910F9108950F931F93DF93CF93DF
:101C800000D0CDB7DEB789836A83E6E4F0E080E276
:101C90009EE4918380838A818F30F9F40AE410E016
:101CA0008981882F90E0A0E0B0E028EE33E040E0AA
:101CB00050E0BC01CD010E94B81FDC01CB0124E63D
:101CC00030E040E050E0BC01CD010E94EB1FDA01A2
:101CD000C901F8019183808321C08A818031F1F4A8
:101CE00008E410E08981882F90E0A0E0B0E028EEC1
:101CF00033E040E050E0BC01CD010E94B81FDC01A0
:101D0000CB0124E630E040E050E0BC01CD010E9470
:101D1000EB1FDA01C901F801918380830F900F90C6
:101D2000CF91DF911F910F910895DF93CF9300D052
:101D30000F92CDB7DEB789838981282F30E03B83AE
:101D40002A838A819B818430910531F02A813B81ED
:101D50002530310549F00FC0A8E5B0E0E8E5F0E036
:101D6000808184608C9307C0A8E5B0E0E8E5F0E0EE
:101D7000808180628C930F900F900F90CF91DF91B4
:101D800008951F920F920FB60F9211242F933F9335
:101D90004F935F936F937F938F939F93AF93BF9373
:101DA000EF93FF93DF93CF93CDB7DEB78091C00160
:101DB0009091C101009729F0E091C001F091C1011B
:101DC0000995CF91DF91FF91EF91BF91AF919F91D5
:101DD0008F917F916F915F914F913F912F910F90D4
:101DE0000FBE0F901F901895DF93CF9300D0CDB703
:101DF000DEB79A83898389819A81009731F089813E
:101E00009A819093C1018093C0010F900F90CF9160
:101E1000DF9108951F920F920FB60F9211242F9306
:101E20003F934F935F936F937F938F939F93AF9362
:101E3000BF93EF93FF93DF93CF93CDB7DEB780913E
:101E4000C2019091C301009729F0E091C201F09185
:101E5000C3010995CF91DF91FF91EF91BF91AF91B0
:101E60009F918F917F916F915F914F913F912F91B2
:101E70000F900FBE0F901F901895DF93CF9300D057
:101E8000CDB7DEB79A83898389819A81009731F033
:101E900089819A819093C3018093C2010F900F9022
:101EA000CF91DF9108951F920F920FB60F921124D8
:101EB0002F933F934F935F936F937F938F939F9352
:101EC000AF93BF93EF93FF93DF93CF93CDB7DEB77D
:101ED0008091C4019091C501009729F0E091C4015F
:101EE000F091C5010995CF91DF91FF91EF91BF91DD
:101EF000AF919F918F917F916F915F914F913F91A2
:101F00002F910F900FBE0F901F901895DF93CF93D6
:101F100000D0CDB7DEB79A83898389819A810097F3
:101F200031F089819A819093C5018093C4010F900B
:101F30000F90CF91DF9108951F920F920FB60F92DD
:101F400011242F933F934F935F936F937F938F93BE
:101F50009F93AF93BF93EF93FF93DF93CF93CDB74F
:101F6000DEB78091C2019091C301009729F0E09102
:101F7000C201F091C3010995CF91DF91FF91EF91DB
:101F8000BF91AF919F918F917F916F915F914F9191
:101F90003F912F910F900FBE0F901F901895DF93D8
:101FA000CF9300D0CDB7DEB79A83898389819A8198
:101FB000009731F089819A819093C7018093C6017F
:101FC0000F900F90CF91DF9108951F920F920FB64F
:101FD0000F9211242F933F934F935F936F937F93AF
:101FE0008F939F93AF93BF93EF93FF93DF93CF9321
:101FF000CDB7DEB78091C8019091C901009729F053
:10200000E091C801F091C9010995CF91DF91FF914D
:10201000EF91BF91AF919F918F917F916F915F9160
:102020004F913F912F910F900FBE0F901F901895D9
:10203000DF93CF9300D0CDB7DEB79A8389838981B0
:102040009A81009731F089819A819093C901809398
:10205000C8010F900F90CF91DF9108951F920F92BA
:102060000FB60F9211242F933F934F935F936F936B
:102070007F938F939F93AF93BF93EF93FF93DF93E0
:10208000CF93CDB7DEB78091CA019091CB01009775
:1020900029F0E091CA01F091CB010995CF91DF9130
:1020A000FF91EF91BF91AF919F918F917F916F9130
:1020B0005F914F913F912F910F900FBE0F901F9006
:1020C0001895DF93CF9300D0CDB7DEB79A8389837D
:1020D00089819A81009731F089819A819093CB010F
:1020E0008093CA010F900F90CF91DF9108951F92B6
:1020F0000F920FB60F9211242F933F934F935F933C
:102100006F937F938F939F93AF93BF93EF93FF93BF
:10211000DF93CF93CDB7DEB78091CC019091CD0105
:10212000009729F0E091CC01F091CD010995CF9174
:10213000DF91FF91EF91BF91AF919F918F917F912F
:102140006F915F914F913F912F910F900FBE0F9024
:102150001F901895DF93CF9300D0CDB7DEB79A8349
:10216000898389819A81009731F089819A8190933E
:10217000CD018093CC010F900F90CF91DF91089506
:102180001F920F920FB60F9211242F933F934F93EC
:102190005F936F937F938F939F93AF93BF93EF93CF
:1021A000FF93DF93CF93CDB7DEB78091CE019091AF
:1021B000CF01009729F0E091CE01F091CF01099570
:1021C000CF91DF91FF91EF91BF91AF919F918F914F
:1021D0007F916F915F914F913F912F910F900FBE23
:1021E0000F901F901895DF93CF9300D0CDB7DEB737
:1021F0009A83898389819A81009731F089819A81B4
:102200009093CF018093CE010F900F90CF91DF91EB
:102210000895DF93CF93CDB7DEB7ADE2B0E0EDE246
:10222000F0E0808180688C93ADE2B0E0EDE2F0E018
:1022300080818C93ADE2B0E0EDE2F0E080818C93A0
:10224000ADE2B0E0EDE2F0E0808180618C93ADE240
:10225000B0E0EDE2F0E080818C93ADE2B0E0EDE241
:10226000F0E0808182608C93AEE2B0E0EEE2F0E0DC
:1022700080818C93ADE2B0E0EDE2F0E0808180649B
:102280008C93CF91DF910895DF93CF93CDB7DEB7D5
:1022900083E064E040E00E94371483E065E040E0C2
:1022A0000E94371483E066E041E00E94371483E027
:1022B00067E040E00E943714ADE2B0E0EDE2F0E00C
:1022C000808180688C93ADE2B0E0EDE2F0E0808147
:1022D0008C93ADE2B0E0EDE2F0E080818C93ADE272
:1022E000B0E0EDE2F0E080818F7E8C93ADE2B0E073
:1022F000EDE2F0E080818C93ADE2B0E0EDE2F0E061
:10230000808180648C93CF91DF910895DF93CF9388
:102310000F92CDB7DEB78983EFE2F0E08981808349
:10232000EEE2F0E080818823DCF7EFE2F0E08081EC
:102330000F90CF91DF910895DF93CF930F92CDB798
:10234000DEB78983EFE2F0E0898180830F90CF913F
:10235000DF910895DF93CF9300D000D0CDB7DEB7E3
:102360009A8389837C836B8389819A819093D1013D
:102370008093D001A091D201B091D301EB81FC8177
:1023800080818C930F900F900F900F90CF91DF91E1
:1023900008951F920F920FB60F9211242F933F931F
:1023A0004F935F936F937F938F939F93AF93BF935D
:1023B000EF93FF93DF93CF93CDB7DEB7A091D20118
:1023C000B091D301EFE2F0E080818C938091D00155
:1023D0009091D101009729F0E091D001F091D101C5
:1023E0000995CF91DF91FF91EF91BF91AF919F91AF
:1023F0008F917F916F915F914F913F912F910F90AE
:102400000FBE0F901F901895DF93CF93CDB7DEB717
:10241000AFE5B0E0EFE5F0E0808180688C93CF918C
:10242000DF910895DF93CF93CDB7DEB7AFE5B0E08E
:10243000EFE5F0E080818F778C93CF91DF91089565
:10244000DF93CF93CDB7DEB7A5E5B0E0E5E5F0E0EB
:1024500080818D7F8C93A5E5B0E0E5E5F0E080819B
:1024600081608C93ABE5B0E0EBE5F0E080818064C7
:102470008C93CF91DF910895DF93CF93CDB7DEB7E3
:10248000A5E5B0E0E5E5F0E08081877F8C93A5E5E8
:10249000B0E0E5E5F0E0808184608C93ABE5B0E0EE
:1024A000EBE5F0E0808180688C93CF91DF91089517
:1024B000DF93CF93CDB7DEB7ABE5B0E0EBE5F0E06F
:1024C000808180628C93CF91DF910895DF93CF93C9
:1024D00000D0CDB7DEB79A83898389819A819093A2
:1024E000D5018093D4010F900F90CF91DF91089583
:1024F0001F920F920FB60F9211242F933F934F9379
:102500005F936F937F938F939F93AF93BF93EF935B
:10251000FF93DF93CF93CDB7DEB78091D401909135
:10252000D501009729F0E091D401F091D5010995EA
:10253000CF91DF91FF91EF91BF91AF919F918F91DB
:102540007F916F915F914F913F912F910F900FBEAF
:102550000F901F901895DF93CF9300D0CDB7DEB7C3
:102560009A83898389819A819093D7018093D60138
:102570000F900F90CF91DF9108951F920F920FB699
:102580000F9211242F933F934F935F936F937F93F9
:102590008F939F93AF93BF93EF93FF93DF93CF936B
:1025A000CDB7DEB78091D6019091D701009729F081
:1025B000E091D601F091D7010995CF91DF91FF917C
:1025C000EF91BF91AF919F918F917F916F915F91AB
:1025D0004F913F912F910F900FBE0F901F90189524
:1025E000DF93CF9300D0CDB7DEB79A8389838981FB
:1025F0009A819093D9018093D8010F900F90CF9139
:10260000DF9108951F920F920FB60F9211242F930E
:102610003F934F935F936F937F938F939F93AF936A
:10262000BF93EF93FF93DF93CF93CDB7DEB7809146
:10263000D8019091D901009729F0E091D801F0914B
:10264000D9010995CF91DF91FF91EF91BF91AF91A2
:102650009F918F917F916F915F914F913F912F91BA
:102660000F900FBE0F901F901895DF93CF93CDB7AB
:10267000DEB727970FB6F894DEBF0FBECDBF8983B4
:102680006A834B838B81882309F075C08981282F49
:1026900030E03F832E838E819F818330910561F1ED
:1026A0002E813F812430310534F48E819F81823028
:1026B000910569F0D3C02E813F812430310589F125
:1026C0008E819F818530910509F440C0C7C0ABE37E
:1026D000B0E0EBE3F0E08081482F8A81282F30E0E2
:1026E00081E090E0022E02C0880F991F0A94E2F761
:1026F000809584238C93B2C0A8E3B0E0E8E3F0E0D7
:102700008081482F8A81282F30E081E090E0022EDE
:1027100002C0880F991F0A94E2F7809584238C9356
:102720009DC0A5E3B0E0E5E3F0E08081482F8A8119
:10273000282F30E081E090E0022E02C0880F991F20
:102740000A94E2F7809584238C9388C0A2E3B0E0DA
:10275000E2E3F0E08081482F8A81282F30E081E099
:1027600090E0022E02C0880F991F0A94E2F780952C
:1027700084238C9373C08B81813009F06FC0898171
:10278000282F30E03D832C838C819D8183309105FF
:1027900051F12C813D812430310534F48C819D81AF
:1027A0008230910561F05AC02C813D812430310581
:1027B00071F18C819D8185309105E9F14FC0ABE3CA
:1027C000B0E0EBE3F0E08081482F8A81282F30E0F1
:1027D00081E090E0022E02C0880F991F0A94E2F770
:1027E000842B8C933BC0A8E3B0E0E8E3F0E0808169
:1027F000482F8A81282F30E081E090E0022E02C02D
:10280000880F991F0A94E2F7842B8C9327C0A5E3C5
:10281000B0E0E5E3F0E08081482F8A81282F30E0A6
:1028200081E090E0022E02C0880F991F0A94E2F71F
:10283000842B8C9313C0A2E3B0E0E2E3F0E080814C
:10284000482F8A81282F30E081E090E0022E02C0DC
:10285000880F991F0A94E2F7842B8C9327960FB662
:10286000F894DEBF0FBECDBFCF91DF910895DF9307
:10287000CF93CDB7DEB727970FB6F894DEBF0FBE64
:10288000CDBF89836A834B838B81882309F075C010
:102890008981282F30E03F832E838E819F81833072
:1028A000910561F12E813F812430310534F48E8110
:1028B0009F818230910569F0D3C02E813F81243001
:1028C000310589F18E819F818530910509F440C0E1
:1028D000C7C0AAE3B0E0EAE3F0E08081482F8A8134
:1028E000282F30E081E090E0022E02C0880F991F6F
:1028F0000A94E2F7809584238C93B2C0A7E3B0E0FA
:10290000E7E3F0E08081482F8A81282F30E081E0E2
:1029100090E0022E02C0880F991F0A94E2F780957A
:1029200084238C939DC0A4E3B0E0E4E3F0E08081D5
:10293000482F8A81282F30E081E090E0022E02C0EB
:10294000880F991F0A94E2F7809584238C9388C09E
:10295000A1E3B0E0E1E3F0E08081482F8A81282FF5
:1029600030E081E090E0022E02C0880F991F0A94A7
:10297000E2F7809584238C9373C08B81813009F0BA
:102980006FC08981282F30E03D832C838C819D810D
:102990008330910551F12C813D812430310534F48F
:1029A0008C819D818230910561F05AC02C813D81DE
:1029B0002430310571F18C819D8185309105E9F1DB
:1029C0004FC0AAE3B0E0EAE3F0E08081482F8A81BB
:1029D000282F30E081E090E0022E02C0880F991F7E
:1029E0000A94E2F7842B8C933BC0A7E3B0E0E7E3C3
:1029F000F0E08081482F8A81282F30E081E090E04C
:102A0000022E02C0880F991F0A94E2F7842B8C9340
:102A100027C0A4E3B0E0E4E3F0E08081482F8A819E
:102A2000282F30E081E090E0022E02C0880F991F2D
:102A30000A94E2F7842B8C9313C0A1E3B0E0E1E3A6
:102A4000F0E08081482F8A81282F30E081E090E0FB
:102A5000022E02C0880F991F0A94E2F7842B8C93F0
:102A600027960FB6F894DEBF0FBECDBFCF91DF9192
:102A70000895DF93CF9300D000D000D0CDB7DEB75C
:102A800089836A835C834B838981282F30E03E836E
:102A90002D834D815E814330510559F18D819E8199
:102AA0008430910534F42D813E812230310569F066
:102AB0005BC04D815E814430510579F18D819E81ED
:102AC0008530910509F43DC04FC0E9E3F0E0808115
:102AD000282F30E08A81882F90E0A90102C0559507
:102AE00047958A95E2F7CA018170EB81FC8180836A
:102AF0003BC0E6E3F0E08081282F30E08A81882F18
:102B000090E0A90102C0559547958A95E2F7CA0160
:102B10008170EB81FC81808327C0E3E3F0E080815A
:102B2000282F30E08A81882F90E0A90102C05595B6
:102B300047958A95E2F7CA018170EB81FC81808319
:102B400013C0E0E3F0E08081282F30E08A81882FF5
:102B500090E0A90102C0559547958A95E2F7CA0110
:102B60008170EB81FC81808326960FB6F894DEBFDE
:102B70000FBECDBFCF91DF910895DF93CF9300D0EB
:102B800000D0CDB7DEB789836A838981282F30E0F2
:102B90003C832B838B819C8183309105D9F02B81E1
:102BA0003C812430310534F48B819C818230910545
:102BB00061F01EC02B813C812430310581F08B8176
:102BC0009C818530910581F013C0EBE3F0E08A81B0
:102BD00080830EC0E8E3F0E08A81808309C0E5E3EA
:102BE000F0E08A81808304C0E2E3F0E08A818083A0
:102BF0000F900F900F900F90CF91DF910895DF937A
:102C0000CF93CDB7DEB728970FB6F894DEBF0FBECF
:102C1000CDBF89836A838A818130A1F58981282F7C
:102C200030E038872F838F81988583309105D9F0E4
:102C30002F8138852430310534F48F819885823096
:102C4000910561F085C02F8138852430310581F0F0
:102C50008F8198858530910581F07AC0EAE3F0E0B4
:102C60008FEF808375C0E7E3F0E08FEF808370C063
:102C7000E4E3F0E08FEF80836BC0E1E3F0E08FEFFF
:102C8000808366C08A81882381F58981282F30E07E
:102C90003E832D838D819E8183309105D1F02D81DE
:102CA0003E812430310534F48D819E81823091053E
:102CB00061F04EC02D813E812430310571F08D814F
:102CC0009E818530910569F043C0EAE3F0E010820F
:102CD0003FC0E7E3F0E010823BC0E4E3F0E01082A5
:102CE00037C0E1E3F0E0108233C08981282F30E063
:102CF0003C832B838B819C8183309105D9F02B8180
:102D00003C812430310534F48B819C8182309105E3
:102D100061F01EC02B813C812430310581F08B8114
:102D20009C818530910581F013C0EAE3F0E08A814F
:102D300080830EC0E7E3F0E08A81808309C0E4E38A
:102D4000F0E08A81808304C0E1E3F0E08A8180833F
:102D500028960FB6F894DEBF0FBECDBFCF91DF919E
:102D60000895DF93CF9300D000D00F92CDB7DEB798
:102D700089837B836A838981282F30E03D832C837C
:102D80008C819D8183309105E9F02C813D81243037
:102D9000310534F48C819D818230910561F026C02B
:102DA0002C813D8124303105A1F08C819D818530BD
:102DB0009105B1F01BC0E9E3F0E08081EA81FB817D
:102DC000808314C0E6E3F0E08081EA81FB818083A8
:102DD0000DC0E3E3F0E08081EA81FB81808306C0DF
:102DE000E0E3F0E08081EA81FB8180830F900F9027
:102DF0000F900F900F90CF91DF910895DF93CF93B5
:102E0000CDB7DEB78091DA019091DB010196909306
:102E1000DB018093DA01CF91DF910895DF93CF93A7
:102E2000CDB7DEB78EEF96E10E94AA1085E067E08D
:102E300041E00E94371480E060E00E94830A83E052
:102E400066E041E00E94150CCF91DF910895EF926A
:102E5000FF920F931F93DF93CF93CDB7DEB7A29767
:102E60000FB6F894DEBF0FBECDBF80E090E0A0E0CB
:102E7000B0E08F8F98A3A9A3BAA380E090E0A0E070
:102E8000B0E08B8F9C8FAD8FBE8F1A8E198E85E030
:102E900067E041E00E94351380E090E0A0E2B1E4F9
:102EA0008D8B9E8BAF8BB88F6D897E898F89988D26
:102EB0002BEA3AEA4AE250E40E941F02DC01CB010D
:102EC000898B9A8BAB8BBC8B69897A898B899C891E
:102ED00020E030E040E85FE30E94250488231CF4F2
:102EE00081E0888B91C069897A898B899C8920E0EF
:102EF00030E04FE753E40E94C50318160CF07BC086
:102F00006D897E898F89988D20E030E04AE754E40E
:102F10000E941903DC01CB018C879D87AE87BF8798
:102F20006C857D858E859F8520E030E04AEF54E4F6
:102F30000E941F02DC01CB0188879987AA87BB8783
:102F4000688579858A859B8520E030E040E85FE3ED
:102F50000E94250488232CF481E090E09F838E83D7
:102F60003FC0688579858A859B8520E03FEF4FE7E4
:102F700057E40E94C50318164CF56C857D858E8537
:102F80009F8520E030E040E251E40E941F02DC0116
:102F9000CB01BC01CD010E944900DC01CB019F8324
:102FA0008E830FC088EC90E09D838C838C819D8103
:102FB0000197F1F79D838C838E819F8101979F8379
:102FC0008E838E819F81009769F724C068857985FB
:102FD0008A859B850E944900DC01CB019F838E83FB
:102FE0008E819F819B838A838A819B810197F1F7E0
:102FF0009B838A830FC069897A898B899C890E9407
:103000004900DC01CB01888B8889898389818A9575
:10301000F1F7898385E067E040E00E94351381E0A5
:103020000E94660D1092DB011092DA0180E090E0C0
:103030000E94D70B85E00E94950E0E94560D82E0FB
:103040000E94660D80E090E00E94D70B85E00E9410
:10305000950E0E94560D0E944B0D9A8F898F898D77
:103060009A8DCC01A0E0B0E0BC01CD010E94070523
:103070007B018C018091DA019091DB01CC01A0E011
:10308000B0E02FEF3FEF40E050E0BC01CD010E94E7
:10309000B81FDC01CB01BC01CD010E9455049B018E
:1030A000AC01C801B7010E94F201DC01CB018F8F96
:1030B00098A3A9A3BAA36F8D78A189A19AA128E2A8
:1030C0003EE74CE05BE30E941F02DC01CB018B8FEB
:1030D0009C8FAD8FBE8F85E00E94950E8B8D9C8D51
:1030E000AD8DBE8DBC01CD01A2960FB6F894DEBFAA
:1030F0000FBECDBFCF91DF911F910F91FF90EF9049
:103100000895DF93CF93CDB7DEB7A2970FB6F894AB
:10311000DEBF0FBECDBF85E68B83CE0104969F8FA9
:103120008E8FEDEAF1E0F9A3E8A3F0E1FAA3E8A1BC
:10313000F9A1008088A199A1019699A388A3EE8D99
:10314000FF8D00828E8D9F8D01969F8F8E8F9AA10D
:1031500091509AA3EAA1EE2351F71A82198281E0D5
:103160008C8B1D8A81E08E8B82E08F8B83E0888F31
:1031700084E0898F85E08A8F86E08B8F87E08C8F53
:103180001A8276C08A81282F30E0CE014596FC0154
:10319000E20FF31F908184E0692F40E00E94351315
:1031A000198251C08981282F30E0CE014996FC0157
:1031B000E20FF31F90819E012C5E3F4F84E0692F48
:1031C000A9010E9439158C898823D1F58A81282F7D
:1031D00030E08981482F50E0220F331F220F331F28
:1031E000CE010196820F931F840F951FFC01339629
:1031F00080818B8311C08981282F30E0CE014996D0
:10320000FC01E20FF31F90819E012C5E3F4F84E092
:10321000692FA9010E9439158C89882361F38A815D
:10322000282F30E0CE014596FC01E20FF31F90817C
:1032300084E0692F41E00E943513FB81FD8F1EC0A1
:1032400089818F5F89838981843008F4ABCF8A813B
:10325000282F30E0CE014596FC01E20FF31F90814C
:1032600084E0692F41E00E9435138A818F5F8A8351
:103270008A81843008F486CF8B818D8F8D8DA296C4
:103280000FB6F894DEBF0FBECDBFCF91DF9108958A
:10329000DF93CF93CDB7DEB72F970FB6F894DEBF8D
:1032A0000FBECDBF8F8785E063E040E00E943513FD
:1032B00085E064E040E050E00E94391582E06F85CF
:1032C0000E94BD1585E065E041E00E94351380E075
:1032D00090E0A0E4B0E48B879C87AD87BE876B85C8
:1032E0007C858D859E8520E030E04AEF54E40E9485
:1032F0001F02DC01CB018F839887A987BA876F8172
:10330000788589859A8520E030E040E85FE30E9477
:10331000250488232CF481E090E09E838D833FC0B8
:103320006F81788589859A8520E03FEF4FE757E4E4
:103330000E94C50318164CF56B857C858D859E858E
:1033400020E030E040E251E40E941F02DC01CB01AA
:10335000BC01CD010E944900DC01CB019E838D831D
:103360000FC088EC90E09C838B838B819C810197BC
:10337000F1F79C838B838D819E8101979E838D8342
:103380008D819E81009769F714C06F81788589854A
:103390009A850E944900DC01CB019E838D838D813B
:1033A0009E819A83898389819A810197F1F79A8313
:1033B000898385E065E040E00E9435132F960FB6C3
:1033C000F894DEBF0FBECDBFCF91DF910895DF939C
:1033D000CF93CDB7DEB72F970FB6F894DEBF0FBEF1
:1033E000CDBF8F8785E063E041E00E94351385E023
:1033F00064E040E050E00E94391582E06F850E9451
:10340000BD1585E065E041E00E94351380E090E065
:10341000A0E4B0E48B879C87AD87BE876B857C85F5
:103420008D859E8520E030E04AEF54E40E941F0223
:10343000DC01CB018F839887A987BA876F81788554
:1034400089859A8520E030E040E85FE30E9425040A
:1034500088232CF481E090E09E838D833FC06F81B0
:10346000788589859A8520E03FEF4FE757E40E94F1
:10347000C50318164CF56B857C858D859E8520E0EF
:1034800030E040E251E40E941F02DC01CB01BC01AC
:10349000CD010E944900DC01CB019E838D830FC0CA
:1034A00088EC90E09C838B838B819C810197F1F762
:1034B0009C838B838D819E8101979E838D838D81DB
:1034C0009E81009769F714C06F81788589859A85F8
:1034D0000E944900DC01CB019E838D838D819E81FA
:1034E0009A83898389819A810197F1F79A838983E5
:1034F00085E065E040E00E9435132F960FB6F89402
:10350000DEBF0FBECDBFCF91DF910895DF93CF9384
:10351000CDB7DEB72E970FB6F894DEBF0FBECDBF86
:1035200082E061E00E94FF1585E063E041E00E94D7
:10353000371485E064E041E00E94371485E065E0DF
:1035400041E00E94371480E090E0A0E2B2E48B8773
:103550009C87AD87BE876B857C858D859E8520E0A9
:1035600030E04AEF54E40E941F02DC01CB018F835C
:103570009887A987BA876F81788589859A8520E0A1
:1035800030E040E85FE30E94250488232CF481E0CA
:1035900090E09E838D833FC06F81788589859A8571
:1035A00020E03FEF4FE757E40E94C50318164CF5A3
:1035B0006B857C858D859E8520E030E040E251E47E
:1035C0000E941F02DC01CB01BC01CD010E94490019
:1035D000DC01CB019E838D830FC088EC90E09C833F
:1035E0008B838B819C810197F1F79C838B838D81E9
:1035F0009E8101979E838D838D819E81009769F7BF
:1036000014C06F81788589859A850E944900DC0104
:10361000CB019E838D838D819E819A83898389814D
:103620009A810197F1F79A8389838FE30E94481961
:103630008CE00E94481981E00E9448192E960FB62E
:10364000F894DEBF0FBECDBFCF91DF910895DF9319
:10365000CF9300D00F92CDB7DEB78A836B831982E8
:103660008A81882319F48B81898306C08A818130FD
:1036700019F48B81805C8983898180580E94481964
:103680000F900F900F90CF91DF910895DF93CF931C
:10369000CDB7DEB727970FB6F894DEBF0FBECDBF0C
:1036A0009C838B836D834E832F838D81882F90E045
:1036B000880F991F880F991F880F991F8A838A8105
:1036C000805C0E94481919820EC08981282F30E041
:1036D0008B819C81FC01E20FF31F80810E94E7191E
:1036E00089818F5F89838981883078F38E816F81AA
:1036F0000E94271B8D810E94E71927960FB6F89428
:10370000DEBF0FBECDBFCF91DF910895DF93CF9382
:1037100000D00F92CDB7DEB79B838A8319820EC08B
:103720008981282F30E08A819B81FC01E20FF31F01
:1037300080810E94E71989818F5F89838981282F81
:1037400030E08A819B81FC01E20FF31F8081882396
:1037500039F70F900F900F90CF91DF910895DF937D
:10376000CF93CDB7DEB7E091DE01F091DF0180812C
:103770008093DD018091DD01863441F48091E00188
:10378000813021F481E40E94861103C081E00E940F
:103790008611CF91DF910895DF93CF9300D0CDB7FD
:1037A000DEB78091DC01282F30E03A8329838981BC
:1037B0009A8182339105C1F029813A812333310501
:1037C00009F189819A818133910549F583E060E0AF
:1037D00041E00E94351381E06AE00E94271B88EADD
:1037E00091E00E94861B1BC083E061E041E00E94E3
:1037F000351381E06AE00E94271B83EA91E00E9472
:10380000861B0DC083E060E040E00E94351383E03A
:1038100061E040E00E94351381E00E9448190F905A
:103820000F90CF91DF910895AF92BF92CF92DF9228
:10383000EF92FF920F931F93DF93CF93CDB7DEB735
:10384000C056D0400FB6F894DEBF0FBECDBF1D826C
:10385000CE01069629969FAF8EAF2997A0E6B0E0DD
:103860002B96BFAFAEAF2B97B1E12C96BFAF2C9785
:103870002B96EEADFFAD2B9700802B968EAD9FADB6
:103880002B9701962B969FAF8EAF2B972996AEADB7
:10389000BFAD29970C922996EEADFFAD29973196D1
:1038A0002996FFAFEEAF29972C96FFAD2C97F150DC
:1038B0002C96FFAF2C972C968FAD2C978823C1F6B2
:1038C000DE0157962E96BFAFAEAF2E97E1E7F0E040
:1038D0006096FFAFEEAF6097F1E16196FFAF619741
:1038E0006096AEADBFAD60970C906096EEADFFAD4B
:1038F000609731966096FFAFEEAF60972E96AEADB3
:10390000BFAD2E970C922E96EEADFFAD2E97319651
:103910002E96FFAFEEAF2E976196FFAD6197F150F7
:103920006196FFAF619761968FAD61978823C1F66D
:10393000DE0198966396BFAFAEAF6397E2E8F0E022
:103940006596FFAFEEAF6597F3E06696FFAF6697BB
:103950006596AEADBFAD65970C906596EEADFFADCB
:10396000659731966596FFAFEEAF65976396AEADFE
:10397000BFAD63970C926396EEADFFAD6397319642
:103980006396FFAFEEAF63976696FFAD6697F15013
:103990006696FFAF669766968FAD66978823C1F6E9
:1039A000DE019B966896BFAFAEAF6897E5E8F0E0A2
:1039B0006A96FFAFEEAF6A97F6E06B96FFAF6B9734
:1039C0006A96AEADBFAD6A970C906A96EEADFFAD4C
:1039D0006A9731966A96FFAFEEAF6A976896AEAD7A
:1039E000BFAD68970C926896EEADFFAD68973196C3
:1039F0006896FFAFEEAF68976B96FFAD6B97F1508F
:103A00006B96FFAF6B976B968FAD6B978823C1F664
:103A1000DE01D1966D96BFAFAEAF6D97EBE8F0E0EB
:103A20006F96FFAFEEAF6F97F0E1A096FFAFA09754
:103A30006F96AEADBFAD6F970C906F96EEADFFADCC
:103A40006F9731966F96FFAFEEAF6F976D96AEADF5
:103A5000BFAD6D970C926D96EEADFFAD6D97319643
:103A60006D96FFAFEEAF6D97A096FFADA097F150AA
:103A7000A096FFAFA097A0968FADA0978823C1F620
:103A800083E060E041E00E94371483E061E041E0C0
:103A90000E94371483E060E040E00E94351383E029
:103AA00061E040E00E94351385E062E040E00E9462
:103AB000371483E063E041E00E94371484E06FE054
:103AC0000E94FF1584E064E041E00E94351384E029
:103AD00065E041E00E94351384E066E041E00E9429
:103AE000351384E067E041E00E9435138CEC9BE1E4
:103AF0000E9466122091DE013091DF018FEA9BE186
:103B0000B9010E94AA110E94861A0E9444110E94C3
:103B10000E170E9420120E9404120E942717DC0137
:103B2000CB01BC01CD010E944900DC01CB01CC01DD
:103B3000A0E0B0E089839A83AB83BC8300D000D03F
:103B4000EDB7FEB7319629813A814B815C8184E6DD
:103B500090E0A0E0B0E080839183A283B383CA01A8
:103B6000B90124E630E040E050E00F2EF0E6EF2E01
:103B7000F4E0FF2EF0E00F2FF0E01F2FF02DAA242D
:103B8000BB2465010E94591E0F900F900F900F905B
:103B9000DC01CB0189839A83AB83BC8386E0FE0181
:103BA000EF5BFF4FDF01982F1D929A95E9F789810E
:103BB0009A819E012F5B3F4FB90142E050E00E9485
:103BC000521F89819A81AB81BC8183329105A10505
:103BD000B105E8F481E08093E00180E060E00E94BC
:103BE000271BCE0106960E94861B81E060E00E94A2
:103BF000271BCE018F5B9F4F0E94861B81E063E0F5
:103C00000E94271BCE0188960E94861B35C08981A1
:103C10009A81AB81BC8183369105A105B105E0F4A1
:103C20001092E00180E060E00E94271BCE014796E1
:103C30000E94861B81E060E00E94271BCE018F5B03
:103C40009F4F0E94861B81E063E00E94271BCE01EC
:103C500088960E94861B10C080E060E00E94271BAF
:103C6000CE01C1960E94861B81E060E00E94271B66
:103C7000CE018B960E94861B0E9481188093DC01E6
:103C80008091DC01853609F448CFA1961FAEA1973B
:103C90008D81882321F4A1E0A196AFAFA197A196D1
:103CA000BFADA197BD8383E063E04D810E943513D2
:103CB00034CFAF92BF92CF92DF92EF92FF920F93E9
:103CC0001F93DF93CF93CDB7DEB760970FB6F8940D
:103CD000DEBF0FBECDBF69837A838B839C832D8328
:103CE0003E834F835887E986FA860B871C87AD860B
:103CF000BE86CF86D88A29813A814B815C818D81AD
:103D00009E81AF81B88579018A01E81AF90A0A0B08
:103D10001B0BD801C70124E630E040E050E0BC01B5
:103D2000CD010E94B81FDC01CB0189839A83AB834C
:103D3000BC8329853A854B855C858D819E81AF81C9
:103D4000B885281B390B4A0B5B0B89819A81AB81A3
:103D5000BC81BC01CD010E94EB1FDA01C90189833E
:103D60009A83AB83BC832D8D3E8D4F8D58A18D855D
:103D70009E85AF85B889281B390B4A0B5B0B89815F
:103D80009A81AB81BC81BC01CD010E94B81FDC01CE
:103D9000CB0189839A83AB83BC8389819A81AB8170
:103DA000BC8124E630E040E050E0BC01CD010E943F
:103DB000EB1FDA01C90189839A83AB83BC83298114
:103DC0003A814B815C818D859E85AF85B889820F54
:103DD000931FA41FB51F89839A83AB83BC838981FA
:103DE0009A81AB81BC81BC01CD0160960FB6F8947D
:103DF000DEBF0FBECDBFCF91DF911F910F91FF901E
:103E0000EF90DF90CF90BF90AF900895DF93CF9366
:103E1000CDB7DEB727970FB6F894DEBF0FBECDBF84
:103E20009D838C837F836E831B828E8181508A83E6
:103E30002CC08B81282F30E08C819D81FC01E20F0A
:103E4000F31F808189838B81282F30E08C819D81B5
:103E5000DC01A20FB31F8A81282F30E08C819D8165
:103E6000FC01E20FF31F80818C938A81282F30E0C0
:103E70008C819D81FC01E20FF31F898180838B81FE
:103E80008F5F8B838A8181508A839B818A81981777
:103E900080F227960FB6F894DEBF0FBECDBFCF914C
:103EA000DF910895DF93CF93CDB7DEB728970FB694
:103EB000F894DEBF0FBECDBF9C838B837E836D8362
:103EC00058874F831A8219821FC02D813E818981B4
:103ED0009A81F901E80FF91F8B819C812AE030E07B
:103EE000B9010E94D71F805D808389819A810196E4
:103EF0009A8389838B819C812AE030E0B9010E94FA
:103F0000D71FCB019C838B838B819C810097E9F623
:103F10000EC02D813E8189819A81F901E80FF91F38
:103F200080E3808389819A8101969A83898329819C
:103F30003A818F8198852817390758F38D819E81A2
:103F400029813A81B9010E94061F2D813E81898114
:103F50009A81F901E80FF91F108289819A812896C8
:103F60000FB6F894DEBF0FBECDBFCF91DF9108959D
:103F7000629FD001739FF001829FE00DF11D649F4D
:103F8000E00DF11D929FF00D839FF00D749FF00DD9
:103F9000659FF00D9927729FB00DE11DF91F639F7A
:103FA000B00DE11DF91FBD01CF0111240895AA1B19
:103FB000BB1B51E107C0AA1FBB1FA617B70710F014
:103FC000A61BB70B881F991F5A95A9F78095909546
:103FD000BC01CD010895A1E21A2EAA1BBB1BFD0155
:103FE0000DC0AA1FBB1FEE1FFF1FA217B307E407D8
:103FF000F50720F0A21BB30BE40BF50B661F771F30
:10400000881F991F1A9469F760957095809590950F
:104010009B01AC01BD01CF0108952F923F924F92B9
:104020005F926F927F928F929F92AF92BF92CF9248
:10403000DF92EF92FF920F931F93CF93DF93CDB751
:10404000DEB7CA1BDB0B0FB6F894DEBF0FBECDBFC9
:1040500009942A88398848885F846E847D848C849A
:104060009B84AA84B984C884DF80EE80FD800C81A3
:104070001B81AA81B981CE0FD11D0FB6F894DEBF86
:0C4080000FBECDBFED010895F894FFCFF6
:10408C00546F6F20436C6F73652E2053746F7021C7
:10409C00007374696C6C207361666520202020208D
:1040AC002000636D002020202020002020202020D4
:1040BC0020202020202020202020000000000000B4
:1040CC0000000000010202030303030404040404BF
:1040DC000404040505050505050505050505050587
:1040EC000505050606060606060606060606060667
:1040FC000606060606060606060606060606060654
:10410C000606060707070707070707070707070736
:10411C000707070707070707070707070707070723
:10412C000707070707070707070707070707070713
:10413C000707070707070707070707070707070703
:10414C0007070708080808080808080808080808E6
:10415C0008080808080808080808080808080808D3
:10416C0008080808080808080808080808080808C3
:10417C0008080808080808080808080808080808B3
:10418C0008080808080808080808080808080808A3
:10419C000808080808080808080808080808080893
:1041AC000808080808080808080808080808080883
:1041BC000808080808080808080808080808080873
:1041CC000808082D2D3E3E003C3C2D2D003738397B
:0E41DC002F3435362A3132332D43303D2B003F
:00000001FF
