:100000000C942A000C9434000C9434000C943400AA
:100010000C9434000C9434000C9434000C94340090
:100020000C9434000C9434000C9434000C94340080
:100030000C9434000C9434000C9434000C94340070
:100040000C9434000C9434000C9434000C94340060
:100050000C94340011241FBECFE5D8E0DEBFCDBF25
:100060000E9436000C94DB000C940000DF93CF93C9
:10007000CDB7DEB7E1E3F0E08FEF8083E4E3F0E0BB
:100080008FEF8083EAE3F0E08FEF808382E390E0FC
:1000900069E00E944C00FACFDF93CF9300D000D0EC
:1000A0000F92CDB7DEB79A8389836B838B81282F1C
:1000B00030E03D832C838C819D818430910509F44F
:1000C00055C02C813D8125303105DCF48C819D812A
:1000D0008130910509F43BC02C813D8122303105EE
:1000E0002CF48C819D81009769F15DC02C813D814C
:1000F0002230310589F18C819D818330910589F110
:1001000052C02C813D812730310509F43EC08C81DD
:100110009D81883091055CF42C813D81253031052D
:1001200051F18C819D818630910551F13CC02C812B
:100130003D812830310571F18C819D818930910597
:1001400071F131C0E981FA818FE380832CC0E981AC
:10015000FA8186E0808327C0E981FA818BE580837C
:1001600022C0E981FA818FE480831DC0E981FA8190
:1001700086E6808318C0E981FA818DE6808313C00A
:10018000E981FA818DE780830EC0E981FA8187E0F9
:10019000808309C0E981FA818FE7808304C0E98107
:1001A000FA818FE680830F900F900F900F900F9041
:0A01B000CF91DF910895F894FFCF7E
:00000001FF
