:100000000C942A000C94C4000C9409010C94470031
:100010000C9447000C9447000C9447000C94470044
:100020000C9447000C9447000C9447000C94470034
:100030000C9447000C9447000C9447000C94470024
:100040000C9447000C9447000C9447000C94470014
:100050000C94470011241FBECFE5D8E0DEBFCDBF12
:1000600010E0A0E6B0E0EAE8FAE002C005900D92E8
:10007000A236B107D9F710E0A2E6B0E001C01D92A8
:10008000A636B107E1F70E9412050C9443050C94C3
:100090000000DF93CF93CDB7DEB7AFE5B0E0EFE57B
:1000A000F0E0808180688C93CF91DF910895DF9399
:1000B000CF93CDB7DEB7AFE5B0E0EFE5F0E08081FC
:1000C0008F778C93CF91DF910895DF93CF93CDB746
:1000D000DEB7A5E5B0E0E5E5F0E0808181608C93D6
:1000E000A5E5B0E0E5E5F0E080818D7F8C93ABE5A0
:1000F000B0E0EBE5F0E0808180648C93CF91DF91FC
:100100000895DF93CF93CDB7DEB7A5E5B0E0E5E581
:10011000F0E0808184608C93A5E5B0E0E5E5F0E057
:100120008081877F8C93ABE5B0E0EBE5F0E08081E8
:1001300080688C93CF91DF910895DF93CF93CDB7F3
:10014000DEB7A4E5B0E0E4E5F0E080818F7B8C933E
:10015000ABE5B0E0EBE5F0E0808180628C93CF917D
:10016000DF910895DF93CF9300D0CDB7DEB79A83A8
:10017000898389819A8190936300809362000F90B4
:100180000F90CF91DF9108951F920F920FB60F92AB
:1001900011242F933F934F935F936F937F938F938C
:1001A0009F93AF93BF93EF93FF93DF93CF93CDB71D
:1001B000DEB78091620090916300009729F0E09192
:1001C0006200F09163000995CF91DF91FF91EF916B
:1001D000BF91AF919F918F917F916F915F914F915F
:1001E0003F912F910F900FBE0F901F901895DF93A6
:1001F000CF9300D0CDB7DEB79A83898389819A8166
:1002000090936500809364000F900F90CF91DF91E1
:1002100008951F920F920FB60F9211242F933F93C0
:100220004F935F936F937F938F939F93AF93BF93FE
:10023000EF93FF93DF93CF93CDB7DEB78091640048
:1002400090916500009729F0E0916400F0916500BD
:100250000995CF91DF91FF91EF91BF91AF919F9160
:100260008F917F916F915F914F913F912F910F905F
:100270000FBE0F901F901895DF93CF93CDB7DEB7C9
:1002800027970FB6F894DEBF0FBECDBF89836A8370
:100290004B838B81882309F075C08981282F30E03A
:1002A0003F832E838E819F818330910561F12E8162
:1002B0003F812430310534F48E819F818230910555
:1002C00069F0D3C02E813F812430310589F18E81C0
:1002D0009F818530910509F440C0C7C0ABE3B0E011
:1002E000EBE3F0E08081482F8A81282F30E081E025
:1002F00090E0022E02C0880F991F0A94E2F78095C1
:1003000084238C93B2C0A8E3B0E0E8E3F0E08081FE
:10031000482F8A81282F30E081E090E0022E02C031
:10032000880F991F0A94E2F7809584238C939DC0CF
:10033000A5E3B0E0E5E3F0E08081482F8A81282F33
:1003400030E081E090E0022E02C0880F991F0A94ED
:10035000E2F7809584238C9388C0A2E3B0E0E2E3C7
:10036000F0E08081482F8A81282F30E081E090E002
:10037000022E02C0880F991F0A94E2F78095842309
:100380008C9373C08B81813009F06FC08981282FD5
:1003900030E03D832C838C819D818330910551F128
:1003A0002C813D812430310534F48C819D81823053
:1003B000910561F05AC02C813D812430310571F1E5
:1003C0008C819D8185309105E9F14FC0ABE3B0E0B0
:1003D000EBE3F0E08081482F8A81282F30E081E034
:1003E00090E0022E02C0880F991F0A94E2F7842B36
:1003F0008C933BC0A8E3B0E0E8E3F0E08081482FB5
:100400008A81282F30E081E090E0022E02C0880F20
:10041000991F0A94E2F7842B8C9327C0A5E3B0E0E0
:10042000E5E3F0E08081482F8A81282F30E081E0E9
:1004300090E0022E02C0880F991F0A94E2F7842BE5
:100440008C9313C0A2E3B0E0E2E3F0E08081482F98
:100450008A81282F30E081E090E0022E02C0880FD0
:10046000991F0A94E2F7842B8C9327960FB6F89481
:10047000DEBF0FBECDBFCF91DF910895DF93CF9345
:10048000CDB7DEB727970FB6F894DEBF0FBECDBF4E
:1004900089836A834B838B81882309F075C08981A6
:1004A000282F30E03F832E838E819F8183309105FA
:1004B00061F12E813F812430310534F48E819F819A
:1004C0008230910569F0D3C02E813F8124303105FF
:1004D00089F18E819F818530910509F440C0C7C0A4
:1004E000AAE3B0E0EAE3F0E08081482F8A81282F78
:1004F00030E081E090E0022E02C0880F991F0A943C
:10050000E2F7809584238C93B2C0A7E3B0E0E7E3E1
:10051000F0E08081482F8A81282F30E081E090E050
:10052000022E02C0880F991F0A94E2F78095842357
:100530008C939DC0A4E3B0E0E4E3F0E08081482F19
:100540008A81282F30E081E090E0022E02C0880FDF
:10055000991F0A94E2F7809584238C9388C0A1E3C5
:10056000B0E0E1E3F0E08081482F8A81282F30E07D
:1005700081E090E0022E02C0880F991F0A94E2F7F2
:10058000809584238C9373C08B81813009F06FC078
:100590008981282F30E03D832C838C819D8183309D
:1005A000910551F12C813D812430310534F48C8149
:1005B0009D818230910561F05AC02C813D812430AB
:1005C000310571F18C819D8185309105E9F14FC034
:1005D000AAE3B0E0EAE3F0E08081482F8A81282F87
:1005E00030E081E090E0022E02C0880F991F0A944B
:1005F000E2F7842B8C933BC0A7E3B0E0E7E3F0E0A5
:100600008081482F8A81282F30E081E090E0022EFF
:1006100002C0880F991F0A94E2F7842B8C9327C09D
:10062000A4E3B0E0E4E3F0E08081482F8A81282F42
:1006300030E081E090E0022E02C0880F991F0A94FA
:10064000E2F7842B8C9313C0A1E3B0E0E1E3F0E088
:100650008081482F8A81282F30E081E090E0022EAF
:1006600002C0880F991F0A94E2F7842B8C93279677
:100670000FB6F894DEBF0FBECDBFCF91DF910895C6
:10068000DF93CF9300D000D000D0CDB7DEB7898301
:100690006A835C834B838981282F30E03E832D83DE
:1006A0004D815E814330510559F18D819E818430A9
:1006B000910534F42D813E812230310569F05BC013
:1006C0004D815E814430510579F18D819E81853067
:1006D000910509F43DC04FC0E9E3F0E08081282F87
:1006E00030E08A81882F90E0A90102C05595479596
:1006F0008A95E2F7CA018170EB81FC8180833BC05F
:10070000E6E3F0E08081282F30E08A81882F90E0B6
:10071000A90102C0559547958A95E2F7CA018170F3
:10072000EB81FC81808327C0E3E3F0E08081282F08
:1007300030E08A81882F90E0A90102C05595479545
:100740008A95E2F7CA018170EB81FC81808313C036
:10075000E0E3F0E08081282F30E08A81882F90E06C
:10076000A90102C0559547958A95E2F7CA018170A3
:10077000EB81FC81808326960FB6F894DEBF0FBE16
:10078000CDBFCF91DF910895DF93CF9300D000D0FC
:10079000CDB7DEB789836A838981282F30E03C8317
:1007A0002B838B819C8183309105D9F02B813C81F7
:1007B0002430310534F48B819C818230910561F0C5
:1007C0001EC02B813C812430310581F08B819C81BE
:1007D0008530910581F013C0EBE3F0E08A818083DE
:1007E0000EC0E8E3F0E08A81808309C0E5E3F0E031
:1007F0008A81808304C0E2E3F0E08A8180830F90E5
:100800000F900F900F90CF91DF910895DF93CF93CA
:1008100000D000D000D0CDB7DEB789836A838A814B
:10082000882381F58981282F30E03E832D838D81B7
:100830009E8183309105D1F02D813E812430310598
:1008400034F48D819E818230910561F051C02D81FB
:100850003E812430310571F08D819E818530910576
:1008600069F046C0EAE3F0E0108242C0E7E3F0E05E
:1008700010823EC0E4E3F0E010823AC0E1E3F0E031
:10088000108236C08A81813099F58981282F30E025
:100890003C832B838B819C8183309105D9F02B8104
:1008A0003C812430310534F48B819C818230910568
:1008B00061F01EC02B813C812430310581F08B8199
:1008C0009C818530910581F013C0EAE3F0E08FEF61
:1008D00080830EC0E7E3F0E08FEF808309C0E4E39C
:1008E000F0E08FEF808304C0E1E3F0E08FEF8083DE
:1008F00026960FB6F894DEBF0FBECDBFCF91DF9125
:100900000895DF93CF9300D000D00F92CDB7DEB71C
:1009100089837B836A838981282F30E03D832C8300
:100920008C819D8183309105E9F02C813D812430BB
:10093000310534F48C819D818230910561F026C0AF
:100940002C813D8124303105A1F08C819D81853041
:100950009105B1F01BC0E9E3F0E08081EA81FB8101
:10096000808314C0E6E3F0E08081EA81FB8180832C
:100970000DC0E3E3F0E08081EA81FB81808306C063
:10098000E0E3F0E08081EA81FB8180830F900F90AB
:100990000F900F900F90CF91DF910895DF93CF9339
:1009A000CDB7DEB780916000813061F482E062E013
:1009B00041E00E943C018091600091E08927809392
:1009C00060000BC082E062E040E00E943C01809148
:1009D000600091E0892780936000CF91DF910895B6
:1009E000DF93CF93CDB7DEB780916100813061F4A2
:1009F00082E063E041E00E943C018091610091E06F
:100A00008927809361000BC082E063E040E00E9490
:100A10003C018091610091E0892780936100CF9132
:100A2000DF910895DF93CF93CDB7DEB78EEC94E0DE
:100A30000E94B20080EF94E00E94F70082E062E042
:100A400041E00E943E0282E063E041E00E943E02FB
:100A500085E062E040E00E943E0285E062E041E025
:100A60000E943C0185E063E040E00E943E0285E098
:100A700063E041E00E943C010E9449000E94650041
:0A0A80000E948100FFCFF894FFCF21
:020A8A00010168
:00000001FF
